{
	"contracts/Tweeter.sol": {
		"Twitter": {
			"abi": [
				{
					"inputs": [
						{
							"internalType": "string",
							"name": "_tweet",
							"type": "string"
						}
					],
					"name": "createTweet",
					"outputs": [],
					"stateMutability": "nonpayable",
					"type": "function"
				},
				{
					"inputs": [
						{
							"internalType": "address",
							"name": "_owner",
							"type": "address"
						}
					],
					"name": "getAllTweets",
					"outputs": [
						{
							"internalType": "string[]",
							"name": "",
							"type": "string[]"
						}
					],
					"stateMutability": "view",
					"type": "function"
				},
				{
					"inputs": [
						{
							"internalType": "address",
							"name": "_owner",
							"type": "address"
						},
						{
							"internalType": "uint256",
							"name": "_i",
							"type": "uint256"
						}
					],
					"name": "getTweet",
					"outputs": [
						{
							"internalType": "string",
							"name": "",
							"type": "string"
						}
					],
					"stateMutability": "view",
					"type": "function"
				},
				{
					"inputs": [
						{
							"internalType": "address",
							"name": "",
							"type": "address"
						},
						{
							"internalType": "uint256",
							"name": "",
							"type": "uint256"
						}
					],
					"name": "tweets",
					"outputs": [
						{
							"internalType": "string",
							"name": "",
							"type": "string"
						}
					],
					"stateMutability": "view",
					"type": "function"
				}
			],
			"devdoc": {
				"kind": "dev",
				"methods": {},
				"version": 1
			},
			"evm": {
				"assembly": "    /* \"contracts/Tweeter.sol\":298:1227  contract Twitter {... */\n  mstore(0x40, 0x80)\n  callvalue\n  dup1\n  iszero\n  tag_1\n  jumpi\n  0x00\n  dup1\n  revert\ntag_1:\n  pop\n  dataSize(sub_0)\n  dup1\n  dataOffset(sub_0)\n  0x00\n  codecopy\n  0x00\n  return\nstop\n\nsub_0: assembly {\n        /* \"contracts/Tweeter.sol\":298:1227  contract Twitter {... */\n      mstore(0x40, 0x80)\n      callvalue\n      dup1\n      iszero\n      tag_1\n      jumpi\n      0x00\n      dup1\n      revert\n    tag_1:\n      pop\n      jumpi(tag_2, lt(calldatasize, 0x04))\n      shr(0xe0, calldataload(0x00))\n      dup1\n      0x05a1b4a9\n      eq\n      tag_3\n      jumpi\n      dup1\n      0x112f54e3\n      eq\n      tag_4\n      jumpi\n      dup1\n      0x12e7ee1c\n      eq\n      tag_5\n      jumpi\n      dup1\n      0x7c9cd2bc\n      eq\n      tag_6\n      jumpi\n    tag_2:\n      0x00\n      dup1\n      revert\n        /* \"contracts/Tweeter.sol\":367:409  mapping(address => string[]) public tweets */\n    tag_3:\n      tag_7\n      0x04\n      dup1\n      calldatasize\n      sub\n      dup2\n      add\n      swap1\n      tag_8\n      swap2\n      swap1\n      tag_9\n      jump\t// in\n    tag_8:\n      tag_10\n      jump\t// in\n    tag_7:\n      mload(0x40)\n      tag_11\n      swap2\n      swap1\n      tag_12\n      jump\t// in\n    tag_11:\n      mload(0x40)\n      dup1\n      swap2\n      sub\n      swap1\n      return\n        /* \"contracts/Tweeter.sol\":688:997  function getTweet(address _owner, uint _i) public view returns (string memory) {... */\n    tag_4:\n      tag_13\n      0x04\n      dup1\n      calldatasize\n      sub\n      dup2\n      add\n      swap1\n      tag_14\n      swap2\n      swap1\n      tag_9\n      jump\t// in\n    tag_14:\n      tag_15\n      jump\t// in\n    tag_13:\n      mload(0x40)\n      tag_16\n      swap2\n      swap1\n      tag_12\n      jump\t// in\n    tag_16:\n      mload(0x40)\n      dup1\n      swap2\n      sub\n      swap1\n      return\n        /* \"contracts/Tweeter.sol\":1050:1224  function getAllTweets(address _owner) public view returns (string[] memory) {... */\n    tag_5:\n      tag_17\n      0x04\n      dup1\n      calldatasize\n      sub\n      dup2\n      add\n      swap1\n      tag_18\n      swap2\n      swap1\n      tag_19\n      jump\t// in\n    tag_18:\n      tag_20\n      jump\t// in\n    tag_17:\n      mload(0x40)\n      tag_21\n      swap2\n      swap1\n      tag_22\n      jump\t// in\n    tag_21:\n      mload(0x40)\n      dup1\n      swap2\n      sub\n      swap1\n      return\n        /* \"contracts/Tweeter.sol\":457:620  function createTweet(string memory _tweet) public {... */\n    tag_6:\n      tag_23\n      0x04\n      dup1\n      calldatasize\n      sub\n      dup2\n      add\n      swap1\n      tag_24\n      swap2\n      swap1\n      tag_25\n      jump\t// in\n    tag_24:\n      tag_26\n      jump\t// in\n    tag_23:\n      stop\n        /* \"contracts/Tweeter.sol\":367:409  mapping(address => string[]) public tweets */\n    tag_10:\n      mstore(0x20, 0x00)\n      dup2\n      0x00\n      mstore\n      keccak256(0x00, 0x40)\n      dup2\n      dup2\n      sload\n      dup2\n      lt\n      tag_27\n      jumpi\n      0x00\n      dup1\n      revert\n    tag_27:\n      swap1\n      0x00\n      mstore\n      keccak256(0x00, 0x20)\n      add\n      0x00\n      swap2\n      pop\n      swap2\n      pop\n      pop\n      dup1\n      sload\n      tag_29\n      swap1\n      tag_30\n      jump\t// in\n    tag_29:\n      dup1\n      0x1f\n      add\n      0x20\n      dup1\n      swap2\n      div\n      mul\n      0x20\n      add\n      mload(0x40)\n      swap1\n      dup2\n      add\n      0x40\n      mstore\n      dup1\n      swap3\n      swap2\n      swap1\n      dup2\n      dup2\n      mstore\n      0x20\n      add\n      dup3\n      dup1\n      sload\n      tag_31\n      swap1\n      tag_30\n      jump\t// in\n    tag_31:\n      dup1\n      iszero\n      tag_32\n      jumpi\n      dup1\n      0x1f\n      lt\n      tag_33\n      jumpi\n      0x0100\n      dup1\n      dup4\n      sload\n      div\n      mul\n      dup4\n      mstore\n      swap2\n      0x20\n      add\n      swap2\n      jump(tag_32)\n    tag_33:\n      dup3\n      add\n      swap2\n      swap1\n      0x00\n      mstore\n      keccak256(0x00, 0x20)\n      swap1\n    tag_34:\n      dup2\n      sload\n      dup2\n      mstore\n      swap1\n      0x01\n      add\n      swap1\n      0x20\n      add\n      dup1\n      dup4\n      gt\n      tag_34\n      jumpi\n      dup3\n      swap1\n      sub\n      0x1f\n      and\n      dup3\n      add\n      swap2\n    tag_32:\n      pop\n      pop\n      pop\n      pop\n      pop\n      dup2\n      jump\t// out\n        /* \"contracts/Tweeter.sol\":688:997  function getTweet(address _owner, uint _i) public view returns (string memory) {... */\n    tag_15:\n        /* \"contracts/Tweeter.sol\":752:765  string memory */\n      0x60\n        /* \"contracts/Tweeter.sol\":837:843  tweets */\n      0x00\n        /* \"contracts/Tweeter.sol\":837:851  tweets[_owner] */\n      dup1\n        /* \"contracts/Tweeter.sol\":844:850  _owner */\n      dup5\n        /* \"contracts/Tweeter.sol\":837:851  tweets[_owner] */\n      0xffffffffffffffffffffffffffffffffffffffff\n      and\n      0xffffffffffffffffffffffffffffffffffffffff\n      and\n      dup2\n      mstore\n      0x20\n      add\n      swap1\n      dup2\n      mstore\n      0x20\n      add\n      0x00\n      keccak256\n        /* \"contracts/Tweeter.sol\":837:858  tweets[_owner].length */\n      dup1\n      sload\n      swap1\n      pop\n        /* \"contracts/Tweeter.sol\":832:834  _i */\n      dup3\n        /* \"contracts/Tweeter.sol\":832:858  _i < tweets[_owner].length */\n      lt\n        /* \"contracts/Tweeter.sol\":824:888  require(_i < tweets[_owner].length, \"Tweet index out of bounds\") */\n      tag_36\n      jumpi\n      mload(0x40)\n      0x08c379a000000000000000000000000000000000000000000000000000000000\n      dup2\n      mstore\n      0x04\n      add\n      tag_37\n      swap1\n      tag_38\n      jump\t// in\n    tag_37:\n      mload(0x40)\n      dup1\n      swap2\n      sub\n      swap1\n      revert\n    tag_36:\n        /* \"contracts/Tweeter.sol\":971:977  tweets */\n      0x00\n        /* \"contracts/Tweeter.sol\":971:985  tweets[_owner] */\n      dup1\n        /* \"contracts/Tweeter.sol\":978:984  _owner */\n      dup5\n        /* \"contracts/Tweeter.sol\":971:985  tweets[_owner] */\n      0xffffffffffffffffffffffffffffffffffffffff\n      and\n      0xffffffffffffffffffffffffffffffffffffffff\n      and\n      dup2\n      mstore\n      0x20\n      add\n      swap1\n      dup2\n      mstore\n      0x20\n      add\n      0x00\n      keccak256\n        /* \"contracts/Tweeter.sol\":986:988  _i */\n      dup3\n        /* \"contracts/Tweeter.sol\":971:989  tweets[_owner][_i] */\n      dup2\n      sload\n      dup2\n      lt\n      tag_39\n      jumpi\n      tag_40\n      tag_41\n      jump\t// in\n    tag_40:\n    tag_39:\n      swap1\n      0x00\n      mstore\n      keccak256(0x00, 0x20)\n      add\n        /* \"contracts/Tweeter.sol\":964:989  return tweets[_owner][_i] */\n      dup1\n      sload\n      tag_43\n      swap1\n      tag_30\n      jump\t// in\n    tag_43:\n      dup1\n      0x1f\n      add\n      0x20\n      dup1\n      swap2\n      div\n      mul\n      0x20\n      add\n      mload(0x40)\n      swap1\n      dup2\n      add\n      0x40\n      mstore\n      dup1\n      swap3\n      swap2\n      swap1\n      dup2\n      dup2\n      mstore\n      0x20\n      add\n      dup3\n      dup1\n      sload\n      tag_44\n      swap1\n      tag_30\n      jump\t// in\n    tag_44:\n      dup1\n      iszero\n      tag_45\n      jumpi\n      dup1\n      0x1f\n      lt\n      tag_46\n      jumpi\n      0x0100\n      dup1\n      dup4\n      sload\n      div\n      mul\n      dup4\n      mstore\n      swap2\n      0x20\n      add\n      swap2\n      jump(tag_45)\n    tag_46:\n      dup3\n      add\n      swap2\n      swap1\n      0x00\n      mstore\n      keccak256(0x00, 0x20)\n      swap1\n    tag_47:\n      dup2\n      sload\n      dup2\n      mstore\n      swap1\n      0x01\n      add\n      swap1\n      0x20\n      add\n      dup1\n      dup4\n      gt\n      tag_47\n      jumpi\n      dup3\n      swap1\n      sub\n      0x1f\n      and\n      dup3\n      add\n      swap2\n    tag_45:\n      pop\n      pop\n      pop\n      pop\n      pop\n      swap1\n      pop\n        /* \"contracts/Tweeter.sol\":688:997  function getTweet(address _owner, uint _i) public view returns (string memory) {... */\n      swap3\n      swap2\n      pop\n      pop\n      jump\t// out\n        /* \"contracts/Tweeter.sol\":1050:1224  function getAllTweets(address _owner) public view returns (string[] memory) {... */\n    tag_20:\n        /* \"contracts/Tweeter.sol\":1109:1124  string[] memory */\n      0x60\n        /* \"contracts/Tweeter.sol\":1202:1208  tweets */\n      0x00\n        /* \"contracts/Tweeter.sol\":1202:1216  tweets[_owner] */\n      dup1\n        /* \"contracts/Tweeter.sol\":1209:1215  _owner */\n      dup4\n        /* \"contracts/Tweeter.sol\":1202:1216  tweets[_owner] */\n      0xffffffffffffffffffffffffffffffffffffffff\n      and\n      0xffffffffffffffffffffffffffffffffffffffff\n      and\n      dup2\n      mstore\n      0x20\n      add\n      swap1\n      dup2\n      mstore\n      0x20\n      add\n      0x00\n      keccak256\n        /* \"contracts/Tweeter.sol\":1195:1216  return tweets[_owner] */\n      dup1\n      sload\n      dup1\n      0x20\n      mul\n      0x20\n      add\n      mload(0x40)\n      swap1\n      dup2\n      add\n      0x40\n      mstore\n      dup1\n      swap3\n      swap2\n      swap1\n      dup2\n      dup2\n      mstore\n      0x20\n      add\n      0x00\n      swap1\n    tag_49:\n      dup3\n      dup3\n      lt\n      iszero\n      tag_50\n      jumpi\n      dup4\n      dup3\n      swap1\n      0x00\n      mstore\n      keccak256(0x00, 0x20)\n      add\n      dup1\n      sload\n      tag_52\n      swap1\n      tag_30\n      jump\t// in\n    tag_52:\n      dup1\n      0x1f\n      add\n      0x20\n      dup1\n      swap2\n      div\n      mul\n      0x20\n      add\n      mload(0x40)\n      swap1\n      dup2\n      add\n      0x40\n      mstore\n      dup1\n      swap3\n      swap2\n      swap1\n      dup2\n      dup2\n      mstore\n      0x20\n      add\n      dup3\n      dup1\n      sload\n      tag_53\n      swap1\n      tag_30\n      jump\t// in\n    tag_53:\n      dup1\n      iszero\n      tag_54\n      jumpi\n      dup1\n      0x1f\n      lt\n      tag_55\n      jumpi\n      0x0100\n      dup1\n      dup4\n      sload\n      div\n      mul\n      dup4\n      mstore\n      swap2\n      0x20\n      add\n      swap2\n      jump(tag_54)\n    tag_55:\n      dup3\n      add\n      swap2\n      swap1\n      0x00\n      mstore\n      keccak256(0x00, 0x20)\n      swap1\n    tag_56:\n      dup2\n      sload\n      dup2\n      mstore\n      swap1\n      0x01\n      add\n      swap1\n      0x20\n      add\n      dup1\n      dup4\n      gt\n      tag_56\n      jumpi\n      dup3\n      swap1\n      sub\n      0x1f\n      and\n      dup3\n      add\n      swap2\n    tag_54:\n      pop\n      pop\n      pop\n      pop\n      pop\n      dup2\n      mstore\n      0x20\n      add\n      swap1\n      0x01\n      add\n      swap1\n      jump(tag_49)\n    tag_50:\n      pop\n      pop\n      pop\n      pop\n      swap1\n      pop\n        /* \"contracts/Tweeter.sol\":1050:1224  function getAllTweets(address _owner) public view returns (string[] memory) {... */\n      swap2\n      swap1\n      pop\n      jump\t// out\n        /* \"contracts/Tweeter.sol\":457:620  function createTweet(string memory _tweet) public {... */\n    tag_26:\n        /* \"contracts/Tweeter.sol\":581:587  tweets */\n      0x00\n        /* \"contracts/Tweeter.sol\":581:599  tweets[msg.sender] */\n      dup1\n        /* \"contracts/Tweeter.sol\":588:598  msg.sender */\n      caller\n        /* \"contracts/Tweeter.sol\":581:599  tweets[msg.sender] */\n      0xffffffffffffffffffffffffffffffffffffffff\n      and\n      0xffffffffffffffffffffffffffffffffffffffff\n      and\n      dup2\n      mstore\n      0x20\n      add\n      swap1\n      dup2\n      mstore\n      0x20\n      add\n      0x00\n      keccak256\n        /* \"contracts/Tweeter.sol\":605:611  _tweet */\n      dup2\n        /* \"contracts/Tweeter.sol\":581:612  tweets[msg.sender].push(_tweet) */\n      swap1\n      dup1\n      0x01\n      dup2\n      sload\n      add\n      dup1\n      dup3\n      sstore\n      dup1\n      swap2\n      pop\n      pop\n      0x01\n      swap1\n      sub\n      swap1\n      0x00\n      mstore\n      keccak256(0x00, 0x20)\n      add\n      0x00\n      swap1\n      swap2\n      swap1\n      swap2\n      swap1\n      swap2\n      pop\n      swap1\n      dup2\n      tag_59\n      swap2\n      swap1\n      tag_60\n      jump\t// in\n    tag_59:\n      pop\n        /* \"contracts/Tweeter.sol\":457:620  function createTweet(string memory _tweet) public {... */\n      pop\n      jump\t// out\n        /* \"#utility.yul\":7:82   */\n    tag_61:\n        /* \"#utility.yul\":40:46   */\n      0x00\n        /* \"#utility.yul\":73:75   */\n      0x40\n        /* \"#utility.yul\":67:76   */\n      mload\n        /* \"#utility.yul\":57:76   */\n      swap1\n      pop\n        /* \"#utility.yul\":7:82   */\n      swap1\n      jump\t// out\n        /* \"#utility.yul\":88:205   */\n    tag_62:\n        /* \"#utility.yul\":197:198   */\n      0x00\n        /* \"#utility.yul\":194:195   */\n      dup1\n        /* \"#utility.yul\":187:199   */\n      revert\n        /* \"#utility.yul\":211:328   */\n    tag_63:\n        /* \"#utility.yul\":320:321   */\n      0x00\n        /* \"#utility.yul\":317:318   */\n      dup1\n        /* \"#utility.yul\":310:322   */\n      revert\n        /* \"#utility.yul\":334:460   */\n    tag_64:\n        /* \"#utility.yul\":371:378   */\n      0x00\n        /* \"#utility.yul\":411:453   */\n      0xffffffffffffffffffffffffffffffffffffffff\n        /* \"#utility.yul\":404:409   */\n      dup3\n        /* \"#utility.yul\":400:454   */\n      and\n        /* \"#utility.yul\":389:454   */\n      swap1\n      pop\n        /* \"#utility.yul\":334:460   */\n      swap2\n      swap1\n      pop\n      jump\t// out\n        /* \"#utility.yul\":466:562   */\n    tag_65:\n        /* \"#utility.yul\":503:510   */\n      0x00\n        /* \"#utility.yul\":532:556   */\n      tag_117\n        /* \"#utility.yul\":550:555   */\n      dup3\n        /* \"#utility.yul\":532:556   */\n      tag_64\n      jump\t// in\n    tag_117:\n        /* \"#utility.yul\":521:556   */\n      swap1\n      pop\n        /* \"#utility.yul\":466:562   */\n      swap2\n      swap1\n      pop\n      jump\t// out\n        /* \"#utility.yul\":568:690   */\n    tag_66:\n        /* \"#utility.yul\":641:665   */\n      tag_119\n        /* \"#utility.yul\":659:664   */\n      dup2\n        /* \"#utility.yul\":641:665   */\n      tag_65\n      jump\t// in\n    tag_119:\n        /* \"#utility.yul\":634:639   */\n      dup2\n        /* \"#utility.yul\":631:666   */\n      eq\n        /* \"#utility.yul\":621:684   */\n      tag_120\n      jumpi\n        /* \"#utility.yul\":680:681   */\n      0x00\n        /* \"#utility.yul\":677:678   */\n      dup1\n        /* \"#utility.yul\":670:682   */\n      revert\n        /* \"#utility.yul\":621:684   */\n    tag_120:\n        /* \"#utility.yul\":568:690   */\n      pop\n      jump\t// out\n        /* \"#utility.yul\":696:835   */\n    tag_67:\n        /* \"#utility.yul\":742:747   */\n      0x00\n        /* \"#utility.yul\":780:786   */\n      dup2\n        /* \"#utility.yul\":767:787   */\n      calldataload\n        /* \"#utility.yul\":758:787   */\n      swap1\n      pop\n        /* \"#utility.yul\":796:829   */\n      tag_122\n        /* \"#utility.yul\":823:828   */\n      dup2\n        /* \"#utility.yul\":796:829   */\n      tag_66\n      jump\t// in\n    tag_122:\n        /* \"#utility.yul\":696:835   */\n      swap3\n      swap2\n      pop\n      pop\n      jump\t// out\n        /* \"#utility.yul\":841:918   */\n    tag_68:\n        /* \"#utility.yul\":878:885   */\n      0x00\n        /* \"#utility.yul\":907:912   */\n      dup2\n        /* \"#utility.yul\":896:912   */\n      swap1\n      pop\n        /* \"#utility.yul\":841:918   */\n      swap2\n      swap1\n      pop\n      jump\t// out\n        /* \"#utility.yul\":924:1046   */\n    tag_69:\n        /* \"#utility.yul\":997:1021   */\n      tag_125\n        /* \"#utility.yul\":1015:1020   */\n      dup2\n        /* \"#utility.yul\":997:1021   */\n      tag_68\n      jump\t// in\n    tag_125:\n        /* \"#utility.yul\":990:995   */\n      dup2\n        /* \"#utility.yul\":987:1022   */\n      eq\n        /* \"#utility.yul\":977:1040   */\n      tag_126\n      jumpi\n        /* \"#utility.yul\":1036:1037   */\n      0x00\n        /* \"#utility.yul\":1033:1034   */\n      dup1\n        /* \"#utility.yul\":1026:1038   */\n      revert\n        /* \"#utility.yul\":977:1040   */\n    tag_126:\n        /* \"#utility.yul\":924:1046   */\n      pop\n      jump\t// out\n        /* \"#utility.yul\":1052:1191   */\n    tag_70:\n        /* \"#utility.yul\":1098:1103   */\n      0x00\n        /* \"#utility.yul\":1136:1142   */\n      dup2\n        /* \"#utility.yul\":1123:1143   */\n      calldataload\n        /* \"#utility.yul\":1114:1143   */\n      swap1\n      pop\n        /* \"#utility.yul\":1152:1185   */\n      tag_128\n        /* \"#utility.yul\":1179:1184   */\n      dup2\n        /* \"#utility.yul\":1152:1185   */\n      tag_69\n      jump\t// in\n    tag_128:\n        /* \"#utility.yul\":1052:1191   */\n      swap3\n      swap2\n      pop\n      pop\n      jump\t// out\n        /* \"#utility.yul\":1197:1671   */\n    tag_9:\n        /* \"#utility.yul\":1265:1271   */\n      0x00\n        /* \"#utility.yul\":1273:1279   */\n      dup1\n        /* \"#utility.yul\":1322:1324   */\n      0x40\n        /* \"#utility.yul\":1310:1319   */\n      dup4\n        /* \"#utility.yul\":1301:1308   */\n      dup6\n        /* \"#utility.yul\":1297:1320   */\n      sub\n        /* \"#utility.yul\":1293:1325   */\n      slt\n        /* \"#utility.yul\":1290:1409   */\n      iszero\n      tag_130\n      jumpi\n        /* \"#utility.yul\":1328:1407   */\n      tag_131\n      tag_62\n      jump\t// in\n    tag_131:\n        /* \"#utility.yul\":1290:1409   */\n    tag_130:\n        /* \"#utility.yul\":1448:1449   */\n      0x00\n        /* \"#utility.yul\":1473:1526   */\n      tag_132\n        /* \"#utility.yul\":1518:1525   */\n      dup6\n        /* \"#utility.yul\":1509:1515   */\n      dup3\n        /* \"#utility.yul\":1498:1507   */\n      dup7\n        /* \"#utility.yul\":1494:1516   */\n      add\n        /* \"#utility.yul\":1473:1526   */\n      tag_67\n      jump\t// in\n    tag_132:\n        /* \"#utility.yul\":1463:1526   */\n      swap3\n      pop\n        /* \"#utility.yul\":1419:1536   */\n      pop\n        /* \"#utility.yul\":1575:1577   */\n      0x20\n        /* \"#utility.yul\":1601:1654   */\n      tag_133\n        /* \"#utility.yul\":1646:1653   */\n      dup6\n        /* \"#utility.yul\":1637:1643   */\n      dup3\n        /* \"#utility.yul\":1626:1635   */\n      dup7\n        /* \"#utility.yul\":1622:1644   */\n      add\n        /* \"#utility.yul\":1601:1654   */\n      tag_70\n      jump\t// in\n    tag_133:\n        /* \"#utility.yul\":1591:1654   */\n      swap2\n      pop\n        /* \"#utility.yul\":1546:1664   */\n      pop\n        /* \"#utility.yul\":1197:1671   */\n      swap3\n      pop\n      swap3\n      swap1\n      pop\n      jump\t// out\n        /* \"#utility.yul\":1677:1776   */\n    tag_71:\n        /* \"#utility.yul\":1729:1735   */\n      0x00\n        /* \"#utility.yul\":1763:1768   */\n      dup2\n        /* \"#utility.yul\":1757:1769   */\n      mload\n        /* \"#utility.yul\":1747:1769   */\n      swap1\n      pop\n        /* \"#utility.yul\":1677:1776   */\n      swap2\n      swap1\n      pop\n      jump\t// out\n        /* \"#utility.yul\":1782:1951   */\n    tag_72:\n        /* \"#utility.yul\":1866:1877   */\n      0x00\n        /* \"#utility.yul\":1900:1906   */\n      dup3\n        /* \"#utility.yul\":1895:1898   */\n      dup3\n        /* \"#utility.yul\":1888:1907   */\n      mstore\n        /* \"#utility.yul\":1940:1944   */\n      0x20\n        /* \"#utility.yul\":1935:1938   */\n      dup3\n        /* \"#utility.yul\":1931:1945   */\n      add\n        /* \"#utility.yul\":1916:1945   */\n      swap1\n      pop\n        /* \"#utility.yul\":1782:1951   */\n      swap3\n      swap2\n      pop\n      pop\n      jump\t// out\n        /* \"#utility.yul\":1957:2203   */\n    tag_73:\n        /* \"#utility.yul\":2038:2039   */\n      0x00\n        /* \"#utility.yul\":2048:2161   */\n    tag_137:\n        /* \"#utility.yul\":2062:2068   */\n      dup4\n        /* \"#utility.yul\":2059:2060   */\n      dup2\n        /* \"#utility.yul\":2056:2069   */\n      lt\n        /* \"#utility.yul\":2048:2161   */\n      iszero\n      tag_139\n      jumpi\n        /* \"#utility.yul\":2147:2148   */\n      dup1\n        /* \"#utility.yul\":2142:2145   */\n      dup3\n        /* \"#utility.yul\":2138:2149   */\n      add\n        /* \"#utility.yul\":2132:2150   */\n      mload\n        /* \"#utility.yul\":2128:2129   */\n      dup2\n        /* \"#utility.yul\":2123:2126   */\n      dup5\n        /* \"#utility.yul\":2119:2130   */\n      add\n        /* \"#utility.yul\":2112:2151   */\n      mstore\n        /* \"#utility.yul\":2084:2086   */\n      0x20\n        /* \"#utility.yul\":2081:2082   */\n      dup2\n        /* \"#utility.yul\":2077:2087   */\n      add\n        /* \"#utility.yul\":2072:2087   */\n      swap1\n      pop\n        /* \"#utility.yul\":2048:2161   */\n      jump(tag_137)\n    tag_139:\n        /* \"#utility.yul\":2195:2196   */\n      0x00\n        /* \"#utility.yul\":2186:2192   */\n      dup5\n        /* \"#utility.yul\":2181:2184   */\n      dup5\n        /* \"#utility.yul\":2177:2193   */\n      add\n        /* \"#utility.yul\":2170:2197   */\n      mstore\n        /* \"#utility.yul\":2019:2203   */\n      pop\n        /* \"#utility.yul\":1957:2203   */\n      pop\n      pop\n      pop\n      jump\t// out\n        /* \"#utility.yul\":2209:2311   */\n    tag_74:\n        /* \"#utility.yul\":2250:2256   */\n      0x00\n        /* \"#utility.yul\":2301:2303   */\n      0x1f\n        /* \"#utility.yul\":2297:2304   */\n      not\n        /* \"#utility.yul\":2292:2294   */\n      0x1f\n        /* \"#utility.yul\":2285:2290   */\n      dup4\n        /* \"#utility.yul\":2281:2295   */\n      add\n        /* \"#utility.yul\":2277:2305   */\n      and\n        /* \"#utility.yul\":2267:2305   */\n      swap1\n      pop\n        /* \"#utility.yul\":2209:2311   */\n      swap2\n      swap1\n      pop\n      jump\t// out\n        /* \"#utility.yul\":2317:2694   */\n    tag_75:\n        /* \"#utility.yul\":2405:2408   */\n      0x00\n        /* \"#utility.yul\":2433:2472   */\n      tag_142\n        /* \"#utility.yul\":2466:2471   */\n      dup3\n        /* \"#utility.yul\":2433:2472   */\n      tag_71\n      jump\t// in\n    tag_142:\n        /* \"#utility.yul\":2488:2559   */\n      tag_143\n        /* \"#utility.yul\":2552:2558   */\n      dup2\n        /* \"#utility.yul\":2547:2550   */\n      dup6\n        /* \"#utility.yul\":2488:2559   */\n      tag_72\n      jump\t// in\n    tag_143:\n        /* \"#utility.yul\":2481:2559   */\n      swap4\n      pop\n        /* \"#utility.yul\":2568:2633   */\n      tag_144\n        /* \"#utility.yul\":2626:2632   */\n      dup2\n        /* \"#utility.yul\":2621:2624   */\n      dup6\n        /* \"#utility.yul\":2614:2618   */\n      0x20\n        /* \"#utility.yul\":2607:2612   */\n      dup7\n        /* \"#utility.yul\":2603:2619   */\n      add\n        /* \"#utility.yul\":2568:2633   */\n      tag_73\n      jump\t// in\n    tag_144:\n        /* \"#utility.yul\":2658:2687   */\n      tag_145\n        /* \"#utility.yul\":2680:2686   */\n      dup2\n        /* \"#utility.yul\":2658:2687   */\n      tag_74\n      jump\t// in\n    tag_145:\n        /* \"#utility.yul\":2653:2656   */\n      dup5\n        /* \"#utility.yul\":2649:2688   */\n      add\n        /* \"#utility.yul\":2642:2688   */\n      swap2\n      pop\n        /* \"#utility.yul\":2409:2694   */\n      pop\n        /* \"#utility.yul\":2317:2694   */\n      swap3\n      swap2\n      pop\n      pop\n      jump\t// out\n        /* \"#utility.yul\":2700:3013   */\n    tag_12:\n        /* \"#utility.yul\":2813:2817   */\n      0x00\n        /* \"#utility.yul\":2851:2853   */\n      0x20\n        /* \"#utility.yul\":2840:2849   */\n      dup3\n        /* \"#utility.yul\":2836:2854   */\n      add\n        /* \"#utility.yul\":2828:2854   */\n      swap1\n      pop\n        /* \"#utility.yul\":2900:2909   */\n      dup2\n        /* \"#utility.yul\":2894:2898   */\n      dup2\n        /* \"#utility.yul\":2890:2910   */\n      sub\n        /* \"#utility.yul\":2886:2887   */\n      0x00\n        /* \"#utility.yul\":2875:2884   */\n      dup4\n        /* \"#utility.yul\":2871:2888   */\n      add\n        /* \"#utility.yul\":2864:2911   */\n      mstore\n        /* \"#utility.yul\":2928:3006   */\n      tag_147\n        /* \"#utility.yul\":3001:3005   */\n      dup2\n        /* \"#utility.yul\":2992:2998   */\n      dup5\n        /* \"#utility.yul\":2928:3006   */\n      tag_75\n      jump\t// in\n    tag_147:\n        /* \"#utility.yul\":2920:3006   */\n      swap1\n      pop\n        /* \"#utility.yul\":2700:3013   */\n      swap3\n      swap2\n      pop\n      pop\n      jump\t// out\n        /* \"#utility.yul\":3019:3348   */\n    tag_19:\n        /* \"#utility.yul\":3078:3084   */\n      0x00\n        /* \"#utility.yul\":3127:3129   */\n      0x20\n        /* \"#utility.yul\":3115:3124   */\n      dup3\n        /* \"#utility.yul\":3106:3113   */\n      dup5\n        /* \"#utility.yul\":3102:3125   */\n      sub\n        /* \"#utility.yul\":3098:3130   */\n      slt\n        /* \"#utility.yul\":3095:3214   */\n      iszero\n      tag_149\n      jumpi\n        /* \"#utility.yul\":3133:3212   */\n      tag_150\n      tag_62\n      jump\t// in\n    tag_150:\n        /* \"#utility.yul\":3095:3214   */\n    tag_149:\n        /* \"#utility.yul\":3253:3254   */\n      0x00\n        /* \"#utility.yul\":3278:3331   */\n      tag_151\n        /* \"#utility.yul\":3323:3330   */\n      dup5\n        /* \"#utility.yul\":3314:3320   */\n      dup3\n        /* \"#utility.yul\":3303:3312   */\n      dup6\n        /* \"#utility.yul\":3299:3321   */\n      add\n        /* \"#utility.yul\":3278:3331   */\n      tag_67\n      jump\t// in\n    tag_151:\n        /* \"#utility.yul\":3268:3331   */\n      swap2\n      pop\n        /* \"#utility.yul\":3224:3341   */\n      pop\n        /* \"#utility.yul\":3019:3348   */\n      swap3\n      swap2\n      pop\n      pop\n      jump\t// out\n        /* \"#utility.yul\":3354:3478   */\n    tag_76:\n        /* \"#utility.yul\":3431:3437   */\n      0x00\n        /* \"#utility.yul\":3465:3470   */\n      dup2\n        /* \"#utility.yul\":3459:3471   */\n      mload\n        /* \"#utility.yul\":3449:3471   */\n      swap1\n      pop\n        /* \"#utility.yul\":3354:3478   */\n      swap2\n      swap1\n      pop\n      jump\t// out\n        /* \"#utility.yul\":3484:3678   */\n    tag_77:\n        /* \"#utility.yul\":3593:3604   */\n      0x00\n        /* \"#utility.yul\":3627:3633   */\n      dup3\n        /* \"#utility.yul\":3622:3625   */\n      dup3\n        /* \"#utility.yul\":3615:3634   */\n      mstore\n        /* \"#utility.yul\":3667:3671   */\n      0x20\n        /* \"#utility.yul\":3662:3665   */\n      dup3\n        /* \"#utility.yul\":3658:3672   */\n      add\n        /* \"#utility.yul\":3643:3672   */\n      swap1\n      pop\n        /* \"#utility.yul\":3484:3678   */\n      swap3\n      swap2\n      pop\n      pop\n      jump\t// out\n        /* \"#utility.yul\":3684:3826   */\n    tag_78:\n        /* \"#utility.yul\":3761:3765   */\n      0x00\n        /* \"#utility.yul\":3784:3787   */\n      dup2\n        /* \"#utility.yul\":3776:3787   */\n      swap1\n      pop\n        /* \"#utility.yul\":3814:3818   */\n      0x20\n        /* \"#utility.yul\":3809:3812   */\n      dup3\n        /* \"#utility.yul\":3805:3819   */\n      add\n        /* \"#utility.yul\":3797:3819   */\n      swap1\n      pop\n        /* \"#utility.yul\":3684:3826   */\n      swap2\n      swap1\n      pop\n      jump\t// out\n        /* \"#utility.yul\":3832:3991   */\n    tag_79:\n        /* \"#utility.yul\":3906:3917   */\n      0x00\n        /* \"#utility.yul\":3940:3946   */\n      dup3\n        /* \"#utility.yul\":3935:3938   */\n      dup3\n        /* \"#utility.yul\":3928:3947   */\n      mstore\n        /* \"#utility.yul\":3980:3984   */\n      0x20\n        /* \"#utility.yul\":3975:3978   */\n      dup3\n        /* \"#utility.yul\":3971:3985   */\n      add\n        /* \"#utility.yul\":3956:3985   */\n      swap1\n      pop\n        /* \"#utility.yul\":3832:3991   */\n      swap3\n      swap2\n      pop\n      pop\n      jump\t// out\n        /* \"#utility.yul\":3997:4354   */\n    tag_80:\n        /* \"#utility.yul\":4075:4078   */\n      0x00\n        /* \"#utility.yul\":4103:4142   */\n      tag_157\n        /* \"#utility.yul\":4136:4141   */\n      dup3\n        /* \"#utility.yul\":4103:4142   */\n      tag_71\n      jump\t// in\n    tag_157:\n        /* \"#utility.yul\":4158:4219   */\n      tag_158\n        /* \"#utility.yul\":4212:4218   */\n      dup2\n        /* \"#utility.yul\":4207:4210   */\n      dup6\n        /* \"#utility.yul\":4158:4219   */\n      tag_79\n      jump\t// in\n    tag_158:\n        /* \"#utility.yul\":4151:4219   */\n      swap4\n      pop\n        /* \"#utility.yul\":4228:4293   */\n      tag_159\n        /* \"#utility.yul\":4286:4292   */\n      dup2\n        /* \"#utility.yul\":4281:4284   */\n      dup6\n        /* \"#utility.yul\":4274:4278   */\n      0x20\n        /* \"#utility.yul\":4267:4272   */\n      dup7\n        /* \"#utility.yul\":4263:4279   */\n      add\n        /* \"#utility.yul\":4228:4293   */\n      tag_73\n      jump\t// in\n    tag_159:\n        /* \"#utility.yul\":4318:4347   */\n      tag_160\n        /* \"#utility.yul\":4340:4346   */\n      dup2\n        /* \"#utility.yul\":4318:4347   */\n      tag_74\n      jump\t// in\n    tag_160:\n        /* \"#utility.yul\":4313:4316   */\n      dup5\n        /* \"#utility.yul\":4309:4348   */\n      add\n        /* \"#utility.yul\":4302:4348   */\n      swap2\n      pop\n        /* \"#utility.yul\":4079:4354   */\n      pop\n        /* \"#utility.yul\":3997:4354   */\n      swap3\n      swap2\n      pop\n      pop\n      jump\t// out\n        /* \"#utility.yul\":4360:4556   */\n    tag_81:\n        /* \"#utility.yul\":4449:4459   */\n      0x00\n        /* \"#utility.yul\":4484:4550   */\n      tag_162\n        /* \"#utility.yul\":4546:4549   */\n      dup4\n        /* \"#utility.yul\":4538:4544   */\n      dup4\n        /* \"#utility.yul\":4484:4550   */\n      tag_80\n      jump\t// in\n    tag_162:\n        /* \"#utility.yul\":4470:4550   */\n      swap1\n      pop\n        /* \"#utility.yul\":4360:4556   */\n      swap3\n      swap2\n      pop\n      pop\n      jump\t// out\n        /* \"#utility.yul\":4562:4685   */\n    tag_82:\n        /* \"#utility.yul\":4642:4646   */\n      0x00\n        /* \"#utility.yul\":4674:4678   */\n      0x20\n        /* \"#utility.yul\":4669:4672   */\n      dup3\n        /* \"#utility.yul\":4665:4679   */\n      add\n        /* \"#utility.yul\":4657:4679   */\n      swap1\n      pop\n        /* \"#utility.yul\":4562:4685   */\n      swap2\n      swap1\n      pop\n      jump\t// out\n        /* \"#utility.yul\":4719:5710   */\n    tag_83:\n        /* \"#utility.yul\":4858:4861   */\n      0x00\n        /* \"#utility.yul\":4887:4951   */\n      tag_165\n        /* \"#utility.yul\":4945:4950   */\n      dup3\n        /* \"#utility.yul\":4887:4951   */\n      tag_76\n      jump\t// in\n    tag_165:\n        /* \"#utility.yul\":4967:5063   */\n      tag_166\n        /* \"#utility.yul\":5056:5062   */\n      dup2\n        /* \"#utility.yul\":5051:5054   */\n      dup6\n        /* \"#utility.yul\":4967:5063   */\n      tag_77\n      jump\t// in\n    tag_166:\n        /* \"#utility.yul\":4960:5063   */\n      swap4\n      pop\n        /* \"#utility.yul\":5089:5092   */\n      dup4\n        /* \"#utility.yul\":5134:5138   */\n      0x20\n        /* \"#utility.yul\":5126:5132   */\n      dup3\n        /* \"#utility.yul\":5122:5139   */\n      mul\n        /* \"#utility.yul\":5117:5120   */\n      dup6\n        /* \"#utility.yul\":5113:5140   */\n      add\n        /* \"#utility.yul\":5164:5230   */\n      tag_167\n        /* \"#utility.yul\":5224:5229   */\n      dup6\n        /* \"#utility.yul\":5164:5230   */\n      tag_78\n      jump\t// in\n    tag_167:\n        /* \"#utility.yul\":5253:5260   */\n      dup1\n        /* \"#utility.yul\":5284:5285   */\n      0x00\n        /* \"#utility.yul\":5269:5665   */\n    tag_168:\n        /* \"#utility.yul\":5294:5300   */\n      dup6\n        /* \"#utility.yul\":5291:5292   */\n      dup2\n        /* \"#utility.yul\":5288:5301   */\n      lt\n        /* \"#utility.yul\":5269:5665   */\n      iszero\n      tag_170\n      jumpi\n        /* \"#utility.yul\":5365:5374   */\n      dup5\n        /* \"#utility.yul\":5359:5363   */\n      dup5\n        /* \"#utility.yul\":5355:5375   */\n      sub\n        /* \"#utility.yul\":5350:5353   */\n      dup10\n        /* \"#utility.yul\":5343:5376   */\n      mstore\n        /* \"#utility.yul\":5416:5422   */\n      dup2\n        /* \"#utility.yul\":5410:5423   */\n      mload\n        /* \"#utility.yul\":5444:5528   */\n      tag_171\n        /* \"#utility.yul\":5523:5527   */\n      dup6\n        /* \"#utility.yul\":5508:5521   */\n      dup3\n        /* \"#utility.yul\":5444:5528   */\n      tag_81\n      jump\t// in\n    tag_171:\n        /* \"#utility.yul\":5436:5528   */\n      swap5\n      pop\n        /* \"#utility.yul\":5551:5621   */\n      tag_172\n        /* \"#utility.yul\":5614:5620   */\n      dup4\n        /* \"#utility.yul\":5551:5621   */\n      tag_82\n      jump\t// in\n    tag_172:\n        /* \"#utility.yul\":5541:5621   */\n      swap3\n      pop\n        /* \"#utility.yul\":5650:5654   */\n      0x20\n        /* \"#utility.yul\":5645:5648   */\n      dup11\n        /* \"#utility.yul\":5641:5655   */\n      add\n        /* \"#utility.yul\":5634:5655   */\n      swap10\n      pop\n        /* \"#utility.yul\":5329:5665   */\n      pop\n        /* \"#utility.yul\":5316:5317   */\n      0x01\n        /* \"#utility.yul\":5313:5314   */\n      dup2\n        /* \"#utility.yul\":5309:5318   */\n      add\n        /* \"#utility.yul\":5304:5318   */\n      swap1\n      pop\n        /* \"#utility.yul\":5269:5665   */\n      jump(tag_168)\n    tag_170:\n        /* \"#utility.yul\":5273:5287   */\n      pop\n        /* \"#utility.yul\":5681:5685   */\n      dup3\n        /* \"#utility.yul\":5674:5685   */\n      swap8\n      pop\n        /* \"#utility.yul\":5701:5704   */\n      dup8\n        /* \"#utility.yul\":5694:5704   */\n      swap6\n      pop\n        /* \"#utility.yul\":4863:5710   */\n      pop\n      pop\n      pop\n      pop\n      pop\n        /* \"#utility.yul\":4719:5710   */\n      swap3\n      swap2\n      pop\n      pop\n      jump\t// out\n        /* \"#utility.yul\":5716:6129   */\n    tag_22:\n        /* \"#utility.yul\":5879:5883   */\n      0x00\n        /* \"#utility.yul\":5917:5919   */\n      0x20\n        /* \"#utility.yul\":5906:5915   */\n      dup3\n        /* \"#utility.yul\":5902:5920   */\n      add\n        /* \"#utility.yul\":5894:5920   */\n      swap1\n      pop\n        /* \"#utility.yul\":5966:5975   */\n      dup2\n        /* \"#utility.yul\":5960:5964   */\n      dup2\n        /* \"#utility.yul\":5956:5976   */\n      sub\n        /* \"#utility.yul\":5952:5953   */\n      0x00\n        /* \"#utility.yul\":5941:5950   */\n      dup4\n        /* \"#utility.yul\":5937:5954   */\n      add\n        /* \"#utility.yul\":5930:5977   */\n      mstore\n        /* \"#utility.yul\":5994:6122   */\n      tag_174\n        /* \"#utility.yul\":6117:6121   */\n      dup2\n        /* \"#utility.yul\":6108:6114   */\n      dup5\n        /* \"#utility.yul\":5994:6122   */\n      tag_83\n      jump\t// in\n    tag_174:\n        /* \"#utility.yul\":5986:6122   */\n      swap1\n      pop\n        /* \"#utility.yul\":5716:6129   */\n      swap3\n      swap2\n      pop\n      pop\n      jump\t// out\n        /* \"#utility.yul\":6135:6252   */\n    tag_84:\n        /* \"#utility.yul\":6244:6245   */\n      0x00\n        /* \"#utility.yul\":6241:6242   */\n      dup1\n        /* \"#utility.yul\":6234:6246   */\n      revert\n        /* \"#utility.yul\":6258:6375   */\n    tag_85:\n        /* \"#utility.yul\":6367:6368   */\n      0x00\n        /* \"#utility.yul\":6364:6365   */\n      dup1\n        /* \"#utility.yul\":6357:6369   */\n      revert\n        /* \"#utility.yul\":6381:6561   */\n    tag_86:\n        /* \"#utility.yul\":6429:6506   */\n      0x4e487b7100000000000000000000000000000000000000000000000000000000\n        /* \"#utility.yul\":6426:6427   */\n      0x00\n        /* \"#utility.yul\":6419:6507   */\n      mstore\n        /* \"#utility.yul\":6526:6530   */\n      0x41\n        /* \"#utility.yul\":6523:6524   */\n      0x04\n        /* \"#utility.yul\":6516:6531   */\n      mstore\n        /* \"#utility.yul\":6550:6554   */\n      0x24\n        /* \"#utility.yul\":6547:6548   */\n      0x00\n        /* \"#utility.yul\":6540:6555   */\n      revert\n        /* \"#utility.yul\":6567:6848   */\n    tag_87:\n        /* \"#utility.yul\":6650:6677   */\n      tag_179\n        /* \"#utility.yul\":6672:6676   */\n      dup3\n        /* \"#utility.yul\":6650:6677   */\n      tag_74\n      jump\t// in\n    tag_179:\n        /* \"#utility.yul\":6642:6648   */\n      dup2\n        /* \"#utility.yul\":6638:6678   */\n      add\n        /* \"#utility.yul\":6780:6786   */\n      dup2\n        /* \"#utility.yul\":6768:6778   */\n      dup2\n        /* \"#utility.yul\":6765:6787   */\n      lt\n        /* \"#utility.yul\":6744:6762   */\n      0xffffffffffffffff\n        /* \"#utility.yul\":6732:6742   */\n      dup3\n        /* \"#utility.yul\":6729:6763   */\n      gt\n        /* \"#utility.yul\":6726:6788   */\n      or\n        /* \"#utility.yul\":6723:6811   */\n      iszero\n      tag_180\n      jumpi\n        /* \"#utility.yul\":6791:6809   */\n      tag_181\n      tag_86\n      jump\t// in\n    tag_181:\n        /* \"#utility.yul\":6723:6811   */\n    tag_180:\n        /* \"#utility.yul\":6831:6841   */\n      dup1\n        /* \"#utility.yul\":6827:6829   */\n      0x40\n        /* \"#utility.yul\":6820:6842   */\n      mstore\n        /* \"#utility.yul\":6610:6848   */\n      pop\n        /* \"#utility.yul\":6567:6848   */\n      pop\n      pop\n      jump\t// out\n        /* \"#utility.yul\":6854:6983   */\n    tag_88:\n        /* \"#utility.yul\":6888:6894   */\n      0x00\n        /* \"#utility.yul\":6915:6935   */\n      tag_183\n      tag_61\n      jump\t// in\n    tag_183:\n        /* \"#utility.yul\":6905:6935   */\n      swap1\n      pop\n        /* \"#utility.yul\":6944:6977   */\n      tag_184\n        /* \"#utility.yul\":6972:6976   */\n      dup3\n        /* \"#utility.yul\":6964:6970   */\n      dup3\n        /* \"#utility.yul\":6944:6977   */\n      tag_87\n      jump\t// in\n    tag_184:\n        /* \"#utility.yul\":6854:6983   */\n      swap2\n      swap1\n      pop\n      jump\t// out\n        /* \"#utility.yul\":6989:7297   */\n    tag_89:\n        /* \"#utility.yul\":7051:7055   */\n      0x00\n        /* \"#utility.yul\":7141:7159   */\n      0xffffffffffffffff\n        /* \"#utility.yul\":7133:7139   */\n      dup3\n        /* \"#utility.yul\":7130:7160   */\n      gt\n        /* \"#utility.yul\":7127:7183   */\n      iszero\n      tag_186\n      jumpi\n        /* \"#utility.yul\":7163:7181   */\n      tag_187\n      tag_86\n      jump\t// in\n    tag_187:\n        /* \"#utility.yul\":7127:7183   */\n    tag_186:\n        /* \"#utility.yul\":7201:7230   */\n      tag_188\n        /* \"#utility.yul\":7223:7229   */\n      dup3\n        /* \"#utility.yul\":7201:7230   */\n      tag_74\n      jump\t// in\n    tag_188:\n        /* \"#utility.yul\":7193:7230   */\n      swap1\n      pop\n        /* \"#utility.yul\":7285:7289   */\n      0x20\n        /* \"#utility.yul\":7279:7283   */\n      dup2\n        /* \"#utility.yul\":7275:7290   */\n      add\n        /* \"#utility.yul\":7267:7290   */\n      swap1\n      pop\n        /* \"#utility.yul\":6989:7297   */\n      swap2\n      swap1\n      pop\n      jump\t// out\n        /* \"#utility.yul\":7303:7449   */\n    tag_90:\n        /* \"#utility.yul\":7400:7406   */\n      dup3\n        /* \"#utility.yul\":7395:7398   */\n      dup2\n        /* \"#utility.yul\":7390:7393   */\n      dup4\n        /* \"#utility.yul\":7377:7407   */\n      calldatacopy\n        /* \"#utility.yul\":7441:7442   */\n      0x00\n        /* \"#utility.yul\":7432:7438   */\n      dup4\n        /* \"#utility.yul\":7427:7430   */\n      dup4\n        /* \"#utility.yul\":7423:7439   */\n      add\n        /* \"#utility.yul\":7416:7443   */\n      mstore\n        /* \"#utility.yul\":7303:7449   */\n      pop\n      pop\n      pop\n      jump\t// out\n        /* \"#utility.yul\":7455:7880   */\n    tag_91:\n        /* \"#utility.yul\":7533:7538   */\n      0x00\n        /* \"#utility.yul\":7558:7624   */\n      tag_191\n        /* \"#utility.yul\":7574:7623   */\n      tag_192\n        /* \"#utility.yul\":7616:7622   */\n      dup5\n        /* \"#utility.yul\":7574:7623   */\n      tag_89\n      jump\t// in\n    tag_192:\n        /* \"#utility.yul\":7558:7624   */\n      tag_88\n      jump\t// in\n    tag_191:\n        /* \"#utility.yul\":7549:7624   */\n      swap1\n      pop\n        /* \"#utility.yul\":7647:7653   */\n      dup3\n        /* \"#utility.yul\":7640:7645   */\n      dup2\n        /* \"#utility.yul\":7633:7654   */\n      mstore\n        /* \"#utility.yul\":7685:7689   */\n      0x20\n        /* \"#utility.yul\":7678:7683   */\n      dup2\n        /* \"#utility.yul\":7674:7690   */\n      add\n        /* \"#utility.yul\":7723:7726   */\n      dup5\n        /* \"#utility.yul\":7714:7720   */\n      dup5\n        /* \"#utility.yul\":7709:7712   */\n      dup5\n        /* \"#utility.yul\":7705:7721   */\n      add\n        /* \"#utility.yul\":7702:7727   */\n      gt\n        /* \"#utility.yul\":7699:7811   */\n      iszero\n      tag_193\n      jumpi\n        /* \"#utility.yul\":7730:7809   */\n      tag_194\n      tag_85\n      jump\t// in\n    tag_194:\n        /* \"#utility.yul\":7699:7811   */\n    tag_193:\n        /* \"#utility.yul\":7820:7874   */\n      tag_195\n        /* \"#utility.yul\":7867:7873   */\n      dup5\n        /* \"#utility.yul\":7862:7865   */\n      dup3\n        /* \"#utility.yul\":7857:7860   */\n      dup6\n        /* \"#utility.yul\":7820:7874   */\n      tag_90\n      jump\t// in\n    tag_195:\n        /* \"#utility.yul\":7539:7880   */\n      pop\n        /* \"#utility.yul\":7455:7880   */\n      swap4\n      swap3\n      pop\n      pop\n      pop\n      jump\t// out\n        /* \"#utility.yul\":7900:8240   */\n    tag_92:\n        /* \"#utility.yul\":7956:7961   */\n      0x00\n        /* \"#utility.yul\":8005:8008   */\n      dup3\n        /* \"#utility.yul\":7998:8002   */\n      0x1f\n        /* \"#utility.yul\":7990:7996   */\n      dup4\n        /* \"#utility.yul\":7986:8003   */\n      add\n        /* \"#utility.yul\":7982:8009   */\n      slt\n        /* \"#utility.yul\":7972:8094   */\n      tag_197\n      jumpi\n        /* \"#utility.yul\":8013:8092   */\n      tag_198\n      tag_84\n      jump\t// in\n    tag_198:\n        /* \"#utility.yul\":7972:8094   */\n    tag_197:\n        /* \"#utility.yul\":8130:8136   */\n      dup2\n        /* \"#utility.yul\":8117:8137   */\n      calldataload\n        /* \"#utility.yul\":8155:8234   */\n      tag_199\n        /* \"#utility.yul\":8230:8233   */\n      dup5\n        /* \"#utility.yul\":8222:8228   */\n      dup3\n        /* \"#utility.yul\":8215:8219   */\n      0x20\n        /* \"#utility.yul\":8207:8213   */\n      dup7\n        /* \"#utility.yul\":8203:8220   */\n      add\n        /* \"#utility.yul\":8155:8234   */\n      tag_91\n      jump\t// in\n    tag_199:\n        /* \"#utility.yul\":8146:8234   */\n      swap2\n      pop\n        /* \"#utility.yul\":7962:8240   */\n      pop\n        /* \"#utility.yul\":7900:8240   */\n      swap3\n      swap2\n      pop\n      pop\n      jump\t// out\n        /* \"#utility.yul\":8246:8755   */\n    tag_25:\n        /* \"#utility.yul\":8315:8321   */\n      0x00\n        /* \"#utility.yul\":8364:8366   */\n      0x20\n        /* \"#utility.yul\":8352:8361   */\n      dup3\n        /* \"#utility.yul\":8343:8350   */\n      dup5\n        /* \"#utility.yul\":8339:8362   */\n      sub\n        /* \"#utility.yul\":8335:8367   */\n      slt\n        /* \"#utility.yul\":8332:8451   */\n      iszero\n      tag_201\n      jumpi\n        /* \"#utility.yul\":8370:8449   */\n      tag_202\n      tag_62\n      jump\t// in\n    tag_202:\n        /* \"#utility.yul\":8332:8451   */\n    tag_201:\n        /* \"#utility.yul\":8518:8519   */\n      0x00\n        /* \"#utility.yul\":8507:8516   */\n      dup3\n        /* \"#utility.yul\":8503:8520   */\n      add\n        /* \"#utility.yul\":8490:8521   */\n      calldataload\n        /* \"#utility.yul\":8548:8566   */\n      0xffffffffffffffff\n        /* \"#utility.yul\":8540:8546   */\n      dup2\n        /* \"#utility.yul\":8537:8567   */\n      gt\n        /* \"#utility.yul\":8534:8651   */\n      iszero\n      tag_203\n      jumpi\n        /* \"#utility.yul\":8570:8649   */\n      tag_204\n      tag_63\n      jump\t// in\n    tag_204:\n        /* \"#utility.yul\":8534:8651   */\n    tag_203:\n        /* \"#utility.yul\":8675:8738   */\n      tag_205\n        /* \"#utility.yul\":8730:8737   */\n      dup5\n        /* \"#utility.yul\":8721:8727   */\n      dup3\n        /* \"#utility.yul\":8710:8719   */\n      dup6\n        /* \"#utility.yul\":8706:8728   */\n      add\n        /* \"#utility.yul\":8675:8738   */\n      tag_92\n      jump\t// in\n    tag_205:\n        /* \"#utility.yul\":8665:8738   */\n      swap2\n      pop\n        /* \"#utility.yul\":8461:8748   */\n      pop\n        /* \"#utility.yul\":8246:8755   */\n      swap3\n      swap2\n      pop\n      pop\n      jump\t// out\n        /* \"#utility.yul\":8761:8941   */\n    tag_93:\n        /* \"#utility.yul\":8809:8886   */\n      0x4e487b7100000000000000000000000000000000000000000000000000000000\n        /* \"#utility.yul\":8806:8807   */\n      0x00\n        /* \"#utility.yul\":8799:8887   */\n      mstore\n        /* \"#utility.yul\":8906:8910   */\n      0x22\n        /* \"#utility.yul\":8903:8904   */\n      0x04\n        /* \"#utility.yul\":8896:8911   */\n      mstore\n        /* \"#utility.yul\":8930:8934   */\n      0x24\n        /* \"#utility.yul\":8927:8928   */\n      0x00\n        /* \"#utility.yul\":8920:8935   */\n      revert\n        /* \"#utility.yul\":8947:9267   */\n    tag_30:\n        /* \"#utility.yul\":8991:8997   */\n      0x00\n        /* \"#utility.yul\":9028:9029   */\n      0x02\n        /* \"#utility.yul\":9022:9026   */\n      dup3\n        /* \"#utility.yul\":9018:9030   */\n      div\n        /* \"#utility.yul\":9008:9030   */\n      swap1\n      pop\n        /* \"#utility.yul\":9075:9076   */\n      0x01\n        /* \"#utility.yul\":9069:9073   */\n      dup3\n        /* \"#utility.yul\":9065:9077   */\n      and\n        /* \"#utility.yul\":9096:9114   */\n      dup1\n        /* \"#utility.yul\":9086:9167   */\n      tag_208\n      jumpi\n        /* \"#utility.yul\":9152:9156   */\n      0x7f\n        /* \"#utility.yul\":9144:9150   */\n      dup3\n        /* \"#utility.yul\":9140:9157   */\n      and\n        /* \"#utility.yul\":9130:9157   */\n      swap2\n      pop\n        /* \"#utility.yul\":9086:9167   */\n    tag_208:\n        /* \"#utility.yul\":9214:9216   */\n      0x20\n        /* \"#utility.yul\":9206:9212   */\n      dup3\n        /* \"#utility.yul\":9203:9217   */\n      lt\n        /* \"#utility.yul\":9183:9201   */\n      dup2\n        /* \"#utility.yul\":9180:9218   */\n      sub\n        /* \"#utility.yul\":9177:9261   */\n      tag_209\n      jumpi\n        /* \"#utility.yul\":9233:9251   */\n      tag_210\n      tag_93\n      jump\t// in\n    tag_210:\n        /* \"#utility.yul\":9177:9261   */\n    tag_209:\n        /* \"#utility.yul\":8998:9267   */\n      pop\n        /* \"#utility.yul\":8947:9267   */\n      swap2\n      swap1\n      pop\n      jump\t// out\n        /* \"#utility.yul\":9273:9448   */\n    tag_94:\n        /* \"#utility.yul\":9413:9440   */\n      0x547765657420696e646578206f7574206f6620626f756e647300000000000000\n        /* \"#utility.yul\":9409:9410   */\n      0x00\n        /* \"#utility.yul\":9401:9407   */\n      dup3\n        /* \"#utility.yul\":9397:9411   */\n      add\n        /* \"#utility.yul\":9390:9441   */\n      mstore\n        /* \"#utility.yul\":9273:9448   */\n      pop\n      jump\t// out\n        /* \"#utility.yul\":9454:9820   */\n    tag_95:\n        /* \"#utility.yul\":9596:9599   */\n      0x00\n        /* \"#utility.yul\":9617:9684   */\n      tag_213\n        /* \"#utility.yul\":9681:9683   */\n      0x19\n        /* \"#utility.yul\":9676:9679   */\n      dup4\n        /* \"#utility.yul\":9617:9684   */\n      tag_72\n      jump\t// in\n    tag_213:\n        /* \"#utility.yul\":9610:9684   */\n      swap2\n      pop\n        /* \"#utility.yul\":9693:9786   */\n      tag_214\n        /* \"#utility.yul\":9782:9785   */\n      dup3\n        /* \"#utility.yul\":9693:9786   */\n      tag_94\n      jump\t// in\n    tag_214:\n        /* \"#utility.yul\":9811:9813   */\n      0x20\n        /* \"#utility.yul\":9806:9809   */\n      dup3\n        /* \"#utility.yul\":9802:9814   */\n      add\n        /* \"#utility.yul\":9795:9814   */\n      swap1\n      pop\n        /* \"#utility.yul\":9454:9820   */\n      swap2\n      swap1\n      pop\n      jump\t// out\n        /* \"#utility.yul\":9826:10245   */\n    tag_38:\n        /* \"#utility.yul\":9992:9996   */\n      0x00\n        /* \"#utility.yul\":10030:10032   */\n      0x20\n        /* \"#utility.yul\":10019:10028   */\n      dup3\n        /* \"#utility.yul\":10015:10033   */\n      add\n        /* \"#utility.yul\":10007:10033   */\n      swap1\n      pop\n        /* \"#utility.yul\":10079:10088   */\n      dup2\n        /* \"#utility.yul\":10073:10077   */\n      dup2\n        /* \"#utility.yul\":10069:10089   */\n      sub\n        /* \"#utility.yul\":10065:10066   */\n      0x00\n        /* \"#utility.yul\":10054:10063   */\n      dup4\n        /* \"#utility.yul\":10050:10067   */\n      add\n        /* \"#utility.yul\":10043:10090   */\n      mstore\n        /* \"#utility.yul\":10107:10238   */\n      tag_216\n        /* \"#utility.yul\":10233:10237   */\n      dup2\n        /* \"#utility.yul\":10107:10238   */\n      tag_95\n      jump\t// in\n    tag_216:\n        /* \"#utility.yul\":10099:10238   */\n      swap1\n      pop\n        /* \"#utility.yul\":9826:10245   */\n      swap2\n      swap1\n      pop\n      jump\t// out\n        /* \"#utility.yul\":10251:10431   */\n    tag_41:\n        /* \"#utility.yul\":10299:10376   */\n      0x4e487b7100000000000000000000000000000000000000000000000000000000\n        /* \"#utility.yul\":10296:10297   */\n      0x00\n        /* \"#utility.yul\":10289:10377   */\n      mstore\n        /* \"#utility.yul\":10396:10400   */\n      0x32\n        /* \"#utility.yul\":10393:10394   */\n      0x04\n        /* \"#utility.yul\":10386:10401   */\n      mstore\n        /* \"#utility.yul\":10420:10424   */\n      0x24\n        /* \"#utility.yul\":10417:10418   */\n      0x00\n        /* \"#utility.yul\":10410:10425   */\n      revert\n        /* \"#utility.yul\":10437:10578   */\n    tag_96:\n        /* \"#utility.yul\":10486:10490   */\n      0x00\n        /* \"#utility.yul\":10509:10512   */\n      dup2\n        /* \"#utility.yul\":10501:10512   */\n      swap1\n      pop\n        /* \"#utility.yul\":10532:10535   */\n      dup2\n        /* \"#utility.yul\":10529:10530   */\n      0x00\n        /* \"#utility.yul\":10522:10536   */\n      mstore\n        /* \"#utility.yul\":10566:10570   */\n      0x20\n        /* \"#utility.yul\":10563:10564   */\n      0x00\n        /* \"#utility.yul\":10553:10571   */\n      keccak256\n        /* \"#utility.yul\":10545:10571   */\n      swap1\n      pop\n        /* \"#utility.yul\":10437:10578   */\n      swap2\n      swap1\n      pop\n      jump\t// out\n        /* \"#utility.yul\":10584:10677   */\n    tag_97:\n        /* \"#utility.yul\":10621:10627   */\n      0x00\n        /* \"#utility.yul\":10668:10670   */\n      0x20\n        /* \"#utility.yul\":10663:10665   */\n      0x1f\n        /* \"#utility.yul\":10656:10661   */\n      dup4\n        /* \"#utility.yul\":10652:10666   */\n      add\n        /* \"#utility.yul\":10648:10671   */\n      div\n        /* \"#utility.yul\":10638:10671   */\n      swap1\n      pop\n        /* \"#utility.yul\":10584:10677   */\n      swap2\n      swap1\n      pop\n      jump\t// out\n        /* \"#utility.yul\":10683:10790   */\n    tag_98:\n        /* \"#utility.yul\":10727:10735   */\n      0x00\n        /* \"#utility.yul\":10777:10782   */\n      dup3\n        /* \"#utility.yul\":10771:10775   */\n      dup3\n        /* \"#utility.yul\":10767:10783   */\n      shl\n        /* \"#utility.yul\":10746:10783   */\n      swap1\n      pop\n        /* \"#utility.yul\":10683:10790   */\n      swap3\n      swap2\n      pop\n      pop\n      jump\t// out\n        /* \"#utility.yul\":10796:11189   */\n    tag_99:\n        /* \"#utility.yul\":10865:10871   */\n      0x00\n        /* \"#utility.yul\":10915:10916   */\n      0x08\n        /* \"#utility.yul\":10903:10913   */\n      dup4\n        /* \"#utility.yul\":10899:10917   */\n      mul\n        /* \"#utility.yul\":10938:11035   */\n      tag_222\n        /* \"#utility.yul\":10968:11034   */\n      0xffffffffffffffffffffffffffffffffffffffffffffffffffffffffffffffff\n        /* \"#utility.yul\":10957:10966   */\n      dup3\n        /* \"#utility.yul\":10938:11035   */\n      tag_98\n      jump\t// in\n    tag_222:\n        /* \"#utility.yul\":11056:11095   */\n      tag_223\n        /* \"#utility.yul\":11086:11094   */\n      dup7\n        /* \"#utility.yul\":11075:11084   */\n      dup4\n        /* \"#utility.yul\":11056:11095   */\n      tag_98\n      jump\t// in\n    tag_223:\n        /* \"#utility.yul\":11044:11095   */\n      swap6\n      pop\n        /* \"#utility.yul\":11128:11132   */\n      dup1\n        /* \"#utility.yul\":11124:11133   */\n      not\n        /* \"#utility.yul\":11117:11122   */\n      dup5\n        /* \"#utility.yul\":11113:11134   */\n      and\n        /* \"#utility.yul\":11104:11134   */\n      swap4\n      pop\n        /* \"#utility.yul\":11177:11181   */\n      dup1\n        /* \"#utility.yul\":11167:11175   */\n      dup7\n        /* \"#utility.yul\":11163:11182   */\n      and\n        /* \"#utility.yul\":11156:11161   */\n      dup5\n        /* \"#utility.yul\":11153:11183   */\n      or\n        /* \"#utility.yul\":11143:11183   */\n      swap3\n      pop\n        /* \"#utility.yul\":10872:11189   */\n      pop\n      pop\n        /* \"#utility.yul\":10796:11189   */\n      swap4\n      swap3\n      pop\n      pop\n      pop\n      jump\t// out\n        /* \"#utility.yul\":11195:11255   */\n    tag_100:\n        /* \"#utility.yul\":11223:11226   */\n      0x00\n        /* \"#utility.yul\":11244:11249   */\n      dup2\n        /* \"#utility.yul\":11237:11249   */\n      swap1\n      pop\n        /* \"#utility.yul\":11195:11255   */\n      swap2\n      swap1\n      pop\n      jump\t// out\n        /* \"#utility.yul\":11261:11403   */\n    tag_101:\n        /* \"#utility.yul\":11311:11320   */\n      0x00\n        /* \"#utility.yul\":11344:11397   */\n      tag_226\n        /* \"#utility.yul\":11362:11396   */\n      tag_227\n        /* \"#utility.yul\":11371:11395   */\n      tag_228\n        /* \"#utility.yul\":11389:11394   */\n      dup5\n        /* \"#utility.yul\":11371:11395   */\n      tag_68\n      jump\t// in\n    tag_228:\n        /* \"#utility.yul\":11362:11396   */\n      tag_100\n      jump\t// in\n    tag_227:\n        /* \"#utility.yul\":11344:11397   */\n      tag_68\n      jump\t// in\n    tag_226:\n        /* \"#utility.yul\":11331:11397   */\n      swap1\n      pop\n        /* \"#utility.yul\":11261:11403   */\n      swap2\n      swap1\n      pop\n      jump\t// out\n        /* \"#utility.yul\":11409:11484   */\n    tag_102:\n        /* \"#utility.yul\":11452:11455   */\n      0x00\n        /* \"#utility.yul\":11473:11478   */\n      dup2\n        /* \"#utility.yul\":11466:11478   */\n      swap1\n      pop\n        /* \"#utility.yul\":11409:11484   */\n      swap2\n      swap1\n      pop\n      jump\t// out\n        /* \"#utility.yul\":11490:11759   */\n    tag_103:\n        /* \"#utility.yul\":11600:11639   */\n      tag_231\n        /* \"#utility.yul\":11631:11638   */\n      dup4\n        /* \"#utility.yul\":11600:11639   */\n      tag_101\n      jump\t// in\n    tag_231:\n        /* \"#utility.yul\":11661:11752   */\n      tag_232\n        /* \"#utility.yul\":11710:11751   */\n      tag_233\n        /* \"#utility.yul\":11734:11750   */\n      dup3\n        /* \"#utility.yul\":11710:11751   */\n      tag_102\n      jump\t// in\n    tag_233:\n        /* \"#utility.yul\":11702:11708   */\n      dup5\n        /* \"#utility.yul\":11695:11699   */\n      dup5\n        /* \"#utility.yul\":11689:11700   */\n      sload\n        /* \"#utility.yul\":11661:11752   */\n      tag_99\n      jump\t// in\n    tag_232:\n        /* \"#utility.yul\":11655:11659   */\n      dup3\n        /* \"#utility.yul\":11648:11753   */\n      sstore\n        /* \"#utility.yul\":11566:11759   */\n      pop\n        /* \"#utility.yul\":11490:11759   */\n      pop\n      pop\n      pop\n      jump\t// out\n        /* \"#utility.yul\":11765:11838   */\n    tag_104:\n        /* \"#utility.yul\":11810:11813   */\n      0x00\n        /* \"#utility.yul\":11765:11838   */\n      swap1\n      jump\t// out\n        /* \"#utility.yul\":11844:12033   */\n    tag_105:\n        /* \"#utility.yul\":11921:11953   */\n      tag_236\n      tag_104\n      jump\t// in\n    tag_236:\n        /* \"#utility.yul\":11962:12027   */\n      tag_237\n        /* \"#utility.yul\":12020:12026   */\n      dup2\n        /* \"#utility.yul\":12012:12018   */\n      dup5\n        /* \"#utility.yul\":12006:12010   */\n      dup5\n        /* \"#utility.yul\":11962:12027   */\n      tag_103\n      jump\t// in\n    tag_237:\n        /* \"#utility.yul\":11897:12033   */\n      pop\n        /* \"#utility.yul\":11844:12033   */\n      pop\n      pop\n      jump\t// out\n        /* \"#utility.yul\":12039:12225   */\n    tag_106:\n        /* \"#utility.yul\":12099:12219   */\n    tag_239:\n        /* \"#utility.yul\":12116:12119   */\n      dup2\n        /* \"#utility.yul\":12109:12114   */\n      dup2\n        /* \"#utility.yul\":12106:12120   */\n      lt\n        /* \"#utility.yul\":12099:12219   */\n      iszero\n      tag_241\n      jumpi\n        /* \"#utility.yul\":12170:12209   */\n      tag_242\n        /* \"#utility.yul\":12207:12208   */\n      0x00\n        /* \"#utility.yul\":12200:12205   */\n      dup3\n        /* \"#utility.yul\":12170:12209   */\n      tag_105\n      jump\t// in\n    tag_242:\n        /* \"#utility.yul\":12143:12144   */\n      0x01\n        /* \"#utility.yul\":12136:12141   */\n      dup2\n        /* \"#utility.yul\":12132:12145   */\n      add\n        /* \"#utility.yul\":12123:12145   */\n      swap1\n      pop\n        /* \"#utility.yul\":12099:12219   */\n      jump(tag_239)\n    tag_241:\n        /* \"#utility.yul\":12039:12225   */\n      pop\n      pop\n      jump\t// out\n        /* \"#utility.yul\":12231:12774   */\n    tag_107:\n        /* \"#utility.yul\":12332:12334   */\n      0x1f\n        /* \"#utility.yul\":12327:12330   */\n      dup3\n        /* \"#utility.yul\":12324:12335   */\n      gt\n        /* \"#utility.yul\":12321:12767   */\n      iszero\n      tag_244\n      jumpi\n        /* \"#utility.yul\":12366:12404   */\n      tag_245\n        /* \"#utility.yul\":12398:12403   */\n      dup2\n        /* \"#utility.yul\":12366:12404   */\n      tag_96\n      jump\t// in\n    tag_245:\n        /* \"#utility.yul\":12450:12479   */\n      tag_246\n        /* \"#utility.yul\":12468:12478   */\n      dup5\n        /* \"#utility.yul\":12450:12479   */\n      tag_97\n      jump\t// in\n    tag_246:\n        /* \"#utility.yul\":12440:12448   */\n      dup2\n        /* \"#utility.yul\":12436:12480   */\n      add\n        /* \"#utility.yul\":12633:12635   */\n      0x20\n        /* \"#utility.yul\":12621:12631   */\n      dup6\n        /* \"#utility.yul\":12618:12636   */\n      lt\n        /* \"#utility.yul\":12615:12664   */\n      iszero\n      tag_247\n      jumpi\n        /* \"#utility.yul\":12654:12662   */\n      dup2\n        /* \"#utility.yul\":12639:12662   */\n      swap1\n      pop\n        /* \"#utility.yul\":12615:12664   */\n    tag_247:\n        /* \"#utility.yul\":12677:12757   */\n      tag_248\n        /* \"#utility.yul\":12733:12755   */\n      tag_249\n        /* \"#utility.yul\":12751:12754   */\n      dup6\n        /* \"#utility.yul\":12733:12755   */\n      tag_97\n      jump\t// in\n    tag_249:\n        /* \"#utility.yul\":12723:12731   */\n      dup4\n        /* \"#utility.yul\":12719:12756   */\n      add\n        /* \"#utility.yul\":12706:12717   */\n      dup3\n        /* \"#utility.yul\":12677:12757   */\n      tag_106\n      jump\t// in\n    tag_248:\n        /* \"#utility.yul\":12336:12767   */\n      pop\n      pop\n        /* \"#utility.yul\":12321:12767   */\n    tag_244:\n        /* \"#utility.yul\":12231:12774   */\n      pop\n      pop\n      pop\n      jump\t// out\n        /* \"#utility.yul\":12780:12897   */\n    tag_108:\n        /* \"#utility.yul\":12834:12842   */\n      0x00\n        /* \"#utility.yul\":12884:12889   */\n      dup3\n        /* \"#utility.yul\":12878:12882   */\n      dup3\n        /* \"#utility.yul\":12874:12890   */\n      shr\n        /* \"#utility.yul\":12853:12890   */\n      swap1\n      pop\n        /* \"#utility.yul\":12780:12897   */\n      swap3\n      swap2\n      pop\n      pop\n      jump\t// out\n        /* \"#utility.yul\":12903:13072   */\n    tag_109:\n        /* \"#utility.yul\":12947:12953   */\n      0x00\n        /* \"#utility.yul\":12980:13031   */\n      tag_252\n        /* \"#utility.yul\":13028:13029   */\n      0x00\n        /* \"#utility.yul\":13024:13030   */\n      not\n        /* \"#utility.yul\":13016:13021   */\n      dup5\n        /* \"#utility.yul\":13013:13014   */\n      0x08\n        /* \"#utility.yul\":13009:13022   */\n      mul\n        /* \"#utility.yul\":12980:13031   */\n      tag_108\n      jump\t// in\n    tag_252:\n        /* \"#utility.yul\":12976:13032   */\n      not\n        /* \"#utility.yul\":13061:13065   */\n      dup1\n        /* \"#utility.yul\":13055:13059   */\n      dup4\n        /* \"#utility.yul\":13051:13066   */\n      and\n        /* \"#utility.yul\":13041:13066   */\n      swap2\n      pop\n        /* \"#utility.yul\":12954:13072   */\n      pop\n        /* \"#utility.yul\":12903:13072   */\n      swap3\n      swap2\n      pop\n      pop\n      jump\t// out\n        /* \"#utility.yul\":13077:13372   */\n    tag_110:\n        /* \"#utility.yul\":13153:13157   */\n      0x00\n        /* \"#utility.yul\":13299:13328   */\n      tag_254\n        /* \"#utility.yul\":13324:13327   */\n      dup4\n        /* \"#utility.yul\":13318:13322   */\n      dup4\n        /* \"#utility.yul\":13299:13328   */\n      tag_109\n      jump\t// in\n    tag_254:\n        /* \"#utility.yul\":13291:13328   */\n      swap2\n      pop\n        /* \"#utility.yul\":13361:13364   */\n      dup3\n        /* \"#utility.yul\":13358:13359   */\n      0x02\n        /* \"#utility.yul\":13354:13365   */\n      mul\n        /* \"#utility.yul\":13348:13352   */\n      dup3\n        /* \"#utility.yul\":13345:13366   */\n      or\n        /* \"#utility.yul\":13337:13366   */\n      swap1\n      pop\n        /* \"#utility.yul\":13077:13372   */\n      swap3\n      swap2\n      pop\n      pop\n      jump\t// out\n        /* \"#utility.yul\":13377:14772   */\n    tag_60:\n        /* \"#utility.yul\":13494:13531   */\n      tag_256\n        /* \"#utility.yul\":13527:13530   */\n      dup3\n        /* \"#utility.yul\":13494:13531   */\n      tag_71\n      jump\t// in\n    tag_256:\n        /* \"#utility.yul\":13596:13614   */\n      0xffffffffffffffff\n        /* \"#utility.yul\":13588:13594   */\n      dup2\n        /* \"#utility.yul\":13585:13615   */\n      gt\n        /* \"#utility.yul\":13582:13638   */\n      iszero\n      tag_257\n      jumpi\n        /* \"#utility.yul\":13618:13636   */\n      tag_258\n      tag_86\n      jump\t// in\n    tag_258:\n        /* \"#utility.yul\":13582:13638   */\n    tag_257:\n        /* \"#utility.yul\":13662:13700   */\n      tag_259\n        /* \"#utility.yul\":13694:13698   */\n      dup3\n        /* \"#utility.yul\":13688:13699   */\n      sload\n        /* \"#utility.yul\":13662:13700   */\n      tag_30\n      jump\t// in\n    tag_259:\n        /* \"#utility.yul\":13747:13814   */\n      tag_260\n        /* \"#utility.yul\":13807:13813   */\n      dup3\n        /* \"#utility.yul\":13799:13805   */\n      dup3\n        /* \"#utility.yul\":13793:13797   */\n      dup6\n        /* \"#utility.yul\":13747:13814   */\n      tag_107\n      jump\t// in\n    tag_260:\n        /* \"#utility.yul\":13841:13842   */\n      0x00\n        /* \"#utility.yul\":13865:13869   */\n      0x20\n        /* \"#utility.yul\":13852:13869   */\n      swap1\n      pop\n        /* \"#utility.yul\":13897:13899   */\n      0x1f\n        /* \"#utility.yul\":13889:13895   */\n      dup4\n        /* \"#utility.yul\":13886:13900   */\n      gt\n        /* \"#utility.yul\":13914:13915   */\n      0x01\n        /* \"#utility.yul\":13909:14527   */\n      dup2\n      eq\n      tag_262\n      jumpi\n        /* \"#utility.yul\":14571:14572   */\n      0x00\n        /* \"#utility.yul\":14588:14594   */\n      dup5\n        /* \"#utility.yul\":14585:14662   */\n      iszero\n      tag_263\n      jumpi\n        /* \"#utility.yul\":14637:14646   */\n      dup3\n        /* \"#utility.yul\":14632:14635   */\n      dup8\n        /* \"#utility.yul\":14628:14647   */\n      add\n        /* \"#utility.yul\":14622:14648   */\n      mload\n        /* \"#utility.yul\":14613:14648   */\n      swap1\n      pop\n        /* \"#utility.yul\":14585:14662   */\n    tag_263:\n        /* \"#utility.yul\":14688:14755   */\n      tag_264\n        /* \"#utility.yul\":14748:14754   */\n      dup6\n        /* \"#utility.yul\":14741:14746   */\n      dup3\n        /* \"#utility.yul\":14688:14755   */\n      tag_110\n      jump\t// in\n    tag_264:\n        /* \"#utility.yul\":14682:14686   */\n      dup7\n        /* \"#utility.yul\":14675:14756   */\n      sstore\n        /* \"#utility.yul\":14544:14766   */\n      pop\n        /* \"#utility.yul\":13879:14766   */\n      jump(tag_261)\n        /* \"#utility.yul\":13909:14527   */\n    tag_262:\n        /* \"#utility.yul\":13961:13965   */\n      0x1f\n        /* \"#utility.yul\":13957:13966   */\n      not\n        /* \"#utility.yul\":13949:13955   */\n      dup5\n        /* \"#utility.yul\":13945:13967   */\n      and\n        /* \"#utility.yul\":13995:14032   */\n      tag_265\n        /* \"#utility.yul\":14027:14031   */\n      dup7\n        /* \"#utility.yul\":13995:14032   */\n      tag_96\n      jump\t// in\n    tag_265:\n        /* \"#utility.yul\":14054:14055   */\n      0x00\n        /* \"#utility.yul\":14068:14276   */\n    tag_266:\n        /* \"#utility.yul\":14082:14089   */\n      dup3\n        /* \"#utility.yul\":14079:14080   */\n      dup2\n        /* \"#utility.yul\":14076:14090   */\n      lt\n        /* \"#utility.yul\":14068:14276   */\n      iszero\n      tag_268\n      jumpi\n        /* \"#utility.yul\":14161:14170   */\n      dup5\n        /* \"#utility.yul\":14156:14159   */\n      dup10\n        /* \"#utility.yul\":14152:14171   */\n      add\n        /* \"#utility.yul\":14146:14172   */\n      mload\n        /* \"#utility.yul\":14138:14144   */\n      dup3\n        /* \"#utility.yul\":14131:14173   */\n      sstore\n        /* \"#utility.yul\":14212:14213   */\n      0x01\n        /* \"#utility.yul\":14204:14210   */\n      dup3\n        /* \"#utility.yul\":14200:14214   */\n      add\n        /* \"#utility.yul\":14190:14214   */\n      swap2\n      pop\n        /* \"#utility.yul\":14259:14261   */\n      0x20\n        /* \"#utility.yul\":14248:14257   */\n      dup6\n        /* \"#utility.yul\":14244:14262   */\n      add\n        /* \"#utility.yul\":14231:14262   */\n      swap5\n      pop\n        /* \"#utility.yul\":14105:14109   */\n      0x20\n        /* \"#utility.yul\":14102:14103   */\n      dup2\n        /* \"#utility.yul\":14098:14110   */\n      add\n        /* \"#utility.yul\":14093:14110   */\n      swap1\n      pop\n        /* \"#utility.yul\":14068:14276   */\n      jump(tag_266)\n    tag_268:\n        /* \"#utility.yul\":14304:14310   */\n      dup7\n        /* \"#utility.yul\":14295:14302   */\n      dup4\n        /* \"#utility.yul\":14292:14311   */\n      lt\n        /* \"#utility.yul\":14289:14468   */\n      iszero\n      tag_269\n      jumpi\n        /* \"#utility.yul\":14362:14371   */\n      dup5\n        /* \"#utility.yul\":14357:14360   */\n      dup10\n        /* \"#utility.yul\":14353:14372   */\n      add\n        /* \"#utility.yul\":14347:14373   */\n      mload\n        /* \"#utility.yul\":14405:14453   */\n      tag_270\n        /* \"#utility.yul\":14447:14451   */\n      0x1f\n        /* \"#utility.yul\":14439:14445   */\n      dup10\n        /* \"#utility.yul\":14435:14452   */\n      and\n        /* \"#utility.yul\":14424:14433   */\n      dup3\n        /* \"#utility.yul\":14405:14453   */\n      tag_109\n      jump\t// in\n    tag_270:\n        /* \"#utility.yul\":14397:14403   */\n      dup4\n        /* \"#utility.yul\":14390:14454   */\n      sstore\n        /* \"#utility.yul\":14312:14468   */\n      pop\n        /* \"#utility.yul\":14289:14468   */\n    tag_269:\n        /* \"#utility.yul\":14514:14515   */\n      0x01\n        /* \"#utility.yul\":14510:14511   */\n      0x02\n        /* \"#utility.yul\":14502:14508   */\n      dup9\n        /* \"#utility.yul\":14498:14512   */\n      mul\n        /* \"#utility.yul\":14494:14516   */\n      add\n        /* \"#utility.yul\":14488:14492   */\n      dup9\n        /* \"#utility.yul\":14481:14517   */\n      sstore\n        /* \"#utility.yul\":13916:14527   */\n      pop\n      pop\n      pop\n        /* \"#utility.yul\":13879:14766   */\n    tag_261:\n      pop\n        /* \"#utility.yul\":13469:14772   */\n      pop\n      pop\n      pop\n        /* \"#utility.yul\":13377:14772   */\n      pop\n      pop\n      jump\t// out\n\n    auxdata: 0xa2646970667358221220e1988798ec9ad9a83f4e1f39b27b6d621393dbb10c10d10ed223511e3184cf8e64736f6c63430008160033\n}\n",
				"bytecode": {
					"linkReferences": {},
					"object": "608060405234801561000f575f80fd5b50610c6c8061001d5f395ff3fe608060405234801561000f575f80fd5b506004361061004a575f3560e01c806305a1b4a91461004e578063112f54e31461007e57806312e7ee1c146100ae5780637c9cd2bc146100de575b5f80fd5b6100686004803603810190610063919061052f565b6100fa565b60405161007591906105f7565b60405180910390f35b6100986004803603810190610093919061052f565b6101aa565b6040516100a591906105f7565b60405180910390f35b6100c860048036038101906100c39190610617565b610312565b6040516100d59190610745565b60405180910390f35b6100f860048036038101906100f39190610891565b610422565b005b5f602052815f5260405f208181548110610112575f80fd5b905f5260205f20015f9150915050805461012b90610905565b80601f016020809104026020016040519081016040528092919081815260200182805461015790610905565b80156101a25780601f10610179576101008083540402835291602001916101a2565b820191905f5260205f20905b81548152906001019060200180831161018557829003601f168201915b505050505081565b60605f808473ffffffffffffffffffffffffffffffffffffffff1673ffffffffffffffffffffffffffffffffffffffff1681526020019081526020015f2080549050821061022d576040517f08c379a00000000000000000000000000000000000000000000000000000000081526004016102249061097f565b60405180910390fd5b5f808473ffffffffffffffffffffffffffffffffffffffff1673ffffffffffffffffffffffffffffffffffffffff1681526020019081526020015f20828154811061027b5761027a61099d565b5b905f5260205f2001805461028e90610905565b80601f01602080910402602001604051908101604052809291908181526020018280546102ba90610905565b80156103055780601f106102dc57610100808354040283529160200191610305565b820191905f5260205f20905b8154815290600101906020018083116102e857829003601f168201915b5050505050905092915050565b60605f808373ffffffffffffffffffffffffffffffffffffffff1673ffffffffffffffffffffffffffffffffffffffff1681526020019081526020015f20805480602002602001604051908101604052809291908181526020015f905b82821015610417578382905f5260205f2001805461038c90610905565b80601f01602080910402602001604051908101604052809291908181526020018280546103b890610905565b80156104035780601f106103da57610100808354040283529160200191610403565b820191905f5260205f20905b8154815290600101906020018083116103e657829003601f168201915b50505050508152602001906001019061036f565b505050509050919050565b5f803373ffffffffffffffffffffffffffffffffffffffff1673ffffffffffffffffffffffffffffffffffffffff1681526020019081526020015f2081908060018154018082558091505060019003905f5260205f20015f90919091909150908161048d9190610b67565b5050565b5f604051905090565b5f80fd5b5f80fd5b5f73ffffffffffffffffffffffffffffffffffffffff82169050919050565b5f6104cb826104a2565b9050919050565b6104db816104c1565b81146104e5575f80fd5b50565b5f813590506104f6816104d2565b92915050565b5f819050919050565b61050e816104fc565b8114610518575f80fd5b50565b5f8135905061052981610505565b92915050565b5f80604083850312156105455761054461049a565b5b5f610552858286016104e8565b92505060206105638582860161051b565b9150509250929050565b5f81519050919050565b5f82825260208201905092915050565b5f5b838110156105a4578082015181840152602081019050610589565b5f8484015250505050565b5f601f19601f8301169050919050565b5f6105c98261056d565b6105d38185610577565b93506105e3818560208601610587565b6105ec816105af565b840191505092915050565b5f6020820190508181035f83015261060f81846105bf565b905092915050565b5f6020828403121561062c5761062b61049a565b5b5f610639848285016104e8565b91505092915050565b5f81519050919050565b5f82825260208201905092915050565b5f819050602082019050919050565b5f82825260208201905092915050565b5f6106858261056d565b61068f818561066b565b935061069f818560208601610587565b6106a8816105af565b840191505092915050565b5f6106be838361067b565b905092915050565b5f602082019050919050565b5f6106dc82610642565b6106e6818561064c565b9350836020820285016106f88561065c565b805f5b85811015610733578484038952815161071485826106b3565b945061071f836106c6565b925060208a019950506001810190506106fb565b50829750879550505050505092915050565b5f6020820190508181035f83015261075d81846106d2565b905092915050565b5f80fd5b5f80fd5b7f4e487b71000000000000000000000000000000000000000000000000000000005f52604160045260245ffd5b6107a3826105af565b810181811067ffffffffffffffff821117156107c2576107c161076d565b5b80604052505050565b5f6107d4610491565b90506107e0828261079a565b919050565b5f67ffffffffffffffff8211156107ff576107fe61076d565b5b610808826105af565b9050602081019050919050565b828183375f83830152505050565b5f610835610830846107e5565b6107cb565b90508281526020810184848401111561085157610850610769565b5b61085c848285610815565b509392505050565b5f82601f83011261087857610877610765565b5b8135610888848260208601610823565b91505092915050565b5f602082840312156108a6576108a561049a565b5b5f82013567ffffffffffffffff8111156108c3576108c261049e565b5b6108cf84828501610864565b91505092915050565b7f4e487b71000000000000000000000000000000000000000000000000000000005f52602260045260245ffd5b5f600282049050600182168061091c57607f821691505b60208210810361092f5761092e6108d8565b5b50919050565b7f547765657420696e646578206f7574206f6620626f756e6473000000000000005f82015250565b5f610969601983610577565b915061097482610935565b602082019050919050565b5f6020820190508181035f8301526109968161095d565b9050919050565b7f4e487b71000000000000000000000000000000000000000000000000000000005f52603260045260245ffd5b5f819050815f5260205f209050919050565b5f6020601f8301049050919050565b5f82821b905092915050565b5f60088302610a267fffffffffffffffffffffffffffffffffffffffffffffffffffffffffffffffff826109eb565b610a3086836109eb565b95508019841693508086168417925050509392505050565b5f819050919050565b5f610a6b610a66610a61846104fc565b610a48565b6104fc565b9050919050565b5f819050919050565b610a8483610a51565b610a98610a9082610a72565b8484546109f7565b825550505050565b5f90565b610aac610aa0565b610ab7818484610a7b565b505050565b5b81811015610ada57610acf5f82610aa4565b600181019050610abd565b5050565b601f821115610b1f57610af0816109ca565b610af9846109dc565b81016020851015610b08578190505b610b1c610b14856109dc565b830182610abc565b50505b505050565b5f82821c905092915050565b5f610b3f5f1984600802610b24565b1980831691505092915050565b5f610b578383610b30565b9150826002028217905092915050565b610b708261056d565b67ffffffffffffffff811115610b8957610b8861076d565b5b610b938254610905565b610b9e828285610ade565b5f60209050601f831160018114610bcf575f8415610bbd578287015190505b610bc78582610b4c565b865550610c2e565b601f198416610bdd866109ca565b5f5b82811015610c0457848901518255600182019150602085019450602081019050610bdf565b86831015610c215784890151610c1d601f891682610b30565b8355505b6001600288020188555050505b50505050505056fea2646970667358221220e1988798ec9ad9a83f4e1f39b27b6d621393dbb10c10d10ed223511e3184cf8e64736f6c63430008160033",
					"opcodes": "PUSH1 0x80 PUSH1 0x40 MSTORE CALLVALUE DUP1 ISZERO PUSH2 0xF JUMPI PUSH0 DUP1 REVERT JUMPDEST POP PUSH2 0xC6C DUP1 PUSH2 0x1D PUSH0 CODECOPY PUSH0 RETURN INVALID PUSH1 0x80 PUSH1 0x40 MSTORE CALLVALUE DUP1 ISZERO PUSH2 0xF JUMPI PUSH0 DUP1 REVERT JUMPDEST POP PUSH1 0x4 CALLDATASIZE LT PUSH2 0x4A JUMPI PUSH0 CALLDATALOAD PUSH1 0xE0 SHR DUP1 PUSH4 0x5A1B4A9 EQ PUSH2 0x4E JUMPI DUP1 PUSH4 0x112F54E3 EQ PUSH2 0x7E JUMPI DUP1 PUSH4 0x12E7EE1C EQ PUSH2 0xAE JUMPI DUP1 PUSH4 0x7C9CD2BC EQ PUSH2 0xDE JUMPI JUMPDEST PUSH0 DUP1 REVERT JUMPDEST PUSH2 0x68 PUSH1 0x4 DUP1 CALLDATASIZE SUB DUP2 ADD SWAP1 PUSH2 0x63 SWAP2 SWAP1 PUSH2 0x52F JUMP JUMPDEST PUSH2 0xFA JUMP JUMPDEST PUSH1 0x40 MLOAD PUSH2 0x75 SWAP2 SWAP1 PUSH2 0x5F7 JUMP JUMPDEST PUSH1 0x40 MLOAD DUP1 SWAP2 SUB SWAP1 RETURN JUMPDEST PUSH2 0x98 PUSH1 0x4 DUP1 CALLDATASIZE SUB DUP2 ADD SWAP1 PUSH2 0x93 SWAP2 SWAP1 PUSH2 0x52F JUMP JUMPDEST PUSH2 0x1AA JUMP JUMPDEST PUSH1 0x40 MLOAD PUSH2 0xA5 SWAP2 SWAP1 PUSH2 0x5F7 JUMP JUMPDEST PUSH1 0x40 MLOAD DUP1 SWAP2 SUB SWAP1 RETURN JUMPDEST PUSH2 0xC8 PUSH1 0x4 DUP1 CALLDATASIZE SUB DUP2 ADD SWAP1 PUSH2 0xC3 SWAP2 SWAP1 PUSH2 0x617 JUMP JUMPDEST PUSH2 0x312 JUMP JUMPDEST PUSH1 0x40 MLOAD PUSH2 0xD5 SWAP2 SWAP1 PUSH2 0x745 JUMP JUMPDEST PUSH1 0x40 MLOAD DUP1 SWAP2 SUB SWAP1 RETURN JUMPDEST PUSH2 0xF8 PUSH1 0x4 DUP1 CALLDATASIZE SUB DUP2 ADD SWAP1 PUSH2 0xF3 SWAP2 SWAP1 PUSH2 0x891 JUMP JUMPDEST PUSH2 0x422 JUMP JUMPDEST STOP JUMPDEST PUSH0 PUSH1 0x20 MSTORE DUP2 PUSH0 MSTORE PUSH1 0x40 PUSH0 KECCAK256 DUP2 DUP2 SLOAD DUP2 LT PUSH2 0x112 JUMPI PUSH0 DUP1 REVERT JUMPDEST SWAP1 PUSH0 MSTORE PUSH1 0x20 PUSH0 KECCAK256 ADD PUSH0 SWAP2 POP SWAP2 POP POP DUP1 SLOAD PUSH2 0x12B SWAP1 PUSH2 0x905 JUMP JUMPDEST DUP1 PUSH1 0x1F ADD PUSH1 0x20 DUP1 SWAP2 DIV MUL PUSH1 0x20 ADD PUSH1 0x40 MLOAD SWAP1 DUP2 ADD PUSH1 0x40 MSTORE DUP1 SWAP3 SWAP2 SWAP1 DUP2 DUP2 MSTORE PUSH1 0x20 ADD DUP3 DUP1 SLOAD PUSH2 0x157 SWAP1 PUSH2 0x905 JUMP JUMPDEST DUP1 ISZERO PUSH2 0x1A2 JUMPI DUP1 PUSH1 0x1F LT PUSH2 0x179 JUMPI PUSH2 0x100 DUP1 DUP4 SLOAD DIV MUL DUP4 MSTORE SWAP2 PUSH1 0x20 ADD SWAP2 PUSH2 0x1A2 JUMP JUMPDEST DUP3 ADD SWAP2 SWAP1 PUSH0 MSTORE PUSH1 0x20 PUSH0 KECCAK256 SWAP1 JUMPDEST DUP2 SLOAD DUP2 MSTORE SWAP1 PUSH1 0x1 ADD SWAP1 PUSH1 0x20 ADD DUP1 DUP4 GT PUSH2 0x185 JUMPI DUP3 SWAP1 SUB PUSH1 0x1F AND DUP3 ADD SWAP2 JUMPDEST POP POP POP POP POP DUP2 JUMP JUMPDEST PUSH1 0x60 PUSH0 DUP1 DUP5 PUSH20 0xFFFFFFFFFFFFFFFFFFFFFFFFFFFFFFFFFFFFFFFF AND PUSH20 0xFFFFFFFFFFFFFFFFFFFFFFFFFFFFFFFFFFFFFFFF AND DUP2 MSTORE PUSH1 0x20 ADD SWAP1 DUP2 MSTORE PUSH1 0x20 ADD PUSH0 KECCAK256 DUP1 SLOAD SWAP1 POP DUP3 LT PUSH2 0x22D JUMPI PUSH1 0x40 MLOAD PUSH32 0x8C379A000000000000000000000000000000000000000000000000000000000 DUP2 MSTORE PUSH1 0x4 ADD PUSH2 0x224 SWAP1 PUSH2 0x97F JUMP JUMPDEST PUSH1 0x40 MLOAD DUP1 SWAP2 SUB SWAP1 REVERT JUMPDEST PUSH0 DUP1 DUP5 PUSH20 0xFFFFFFFFFFFFFFFFFFFFFFFFFFFFFFFFFFFFFFFF AND PUSH20 0xFFFFFFFFFFFFFFFFFFFFFFFFFFFFFFFFFFFFFFFF AND DUP2 MSTORE PUSH1 0x20 ADD SWAP1 DUP2 MSTORE PUSH1 0x20 ADD PUSH0 KECCAK256 DUP3 DUP2 SLOAD DUP2 LT PUSH2 0x27B JUMPI PUSH2 0x27A PUSH2 0x99D JUMP JUMPDEST JUMPDEST SWAP1 PUSH0 MSTORE PUSH1 0x20 PUSH0 KECCAK256 ADD DUP1 SLOAD PUSH2 0x28E SWAP1 PUSH2 0x905 JUMP JUMPDEST DUP1 PUSH1 0x1F ADD PUSH1 0x20 DUP1 SWAP2 DIV MUL PUSH1 0x20 ADD PUSH1 0x40 MLOAD SWAP1 DUP2 ADD PUSH1 0x40 MSTORE DUP1 SWAP3 SWAP2 SWAP1 DUP2 DUP2 MSTORE PUSH1 0x20 ADD DUP3 DUP1 SLOAD PUSH2 0x2BA SWAP1 PUSH2 0x905 JUMP JUMPDEST DUP1 ISZERO PUSH2 0x305 JUMPI DUP1 PUSH1 0x1F LT PUSH2 0x2DC JUMPI PUSH2 0x100 DUP1 DUP4 SLOAD DIV MUL DUP4 MSTORE SWAP2 PUSH1 0x20 ADD SWAP2 PUSH2 0x305 JUMP JUMPDEST DUP3 ADD SWAP2 SWAP1 PUSH0 MSTORE PUSH1 0x20 PUSH0 KECCAK256 SWAP1 JUMPDEST DUP2 SLOAD DUP2 MSTORE SWAP1 PUSH1 0x1 ADD SWAP1 PUSH1 0x20 ADD DUP1 DUP4 GT PUSH2 0x2E8 JUMPI DUP3 SWAP1 SUB PUSH1 0x1F AND DUP3 ADD SWAP2 JUMPDEST POP POP POP POP POP SWAP1 POP SWAP3 SWAP2 POP POP JUMP JUMPDEST PUSH1 0x60 PUSH0 DUP1 DUP4 PUSH20 0xFFFFFFFFFFFFFFFFFFFFFFFFFFFFFFFFFFFFFFFF AND PUSH20 0xFFFFFFFFFFFFFFFFFFFFFFFFFFFFFFFFFFFFFFFF AND DUP2 MSTORE PUSH1 0x20 ADD SWAP1 DUP2 MSTORE PUSH1 0x20 ADD PUSH0 KECCAK256 DUP1 SLOAD DUP1 PUSH1 0x20 MUL PUSH1 0x20 ADD PUSH1 0x40 MLOAD SWAP1 DUP2 ADD PUSH1 0x40 MSTORE DUP1 SWAP3 SWAP2 SWAP1 DUP2 DUP2 MSTORE PUSH1 0x20 ADD PUSH0 SWAP1 JUMPDEST DUP3 DUP3 LT ISZERO PUSH2 0x417 JUMPI DUP4 DUP3 SWAP1 PUSH0 MSTORE PUSH1 0x20 PUSH0 KECCAK256 ADD DUP1 SLOAD PUSH2 0x38C SWAP1 PUSH2 0x905 JUMP JUMPDEST DUP1 PUSH1 0x1F ADD PUSH1 0x20 DUP1 SWAP2 DIV MUL PUSH1 0x20 ADD PUSH1 0x40 MLOAD SWAP1 DUP2 ADD PUSH1 0x40 MSTORE DUP1 SWAP3 SWAP2 SWAP1 DUP2 DUP2 MSTORE PUSH1 0x20 ADD DUP3 DUP1 SLOAD PUSH2 0x3B8 SWAP1 PUSH2 0x905 JUMP JUMPDEST DUP1 ISZERO PUSH2 0x403 JUMPI DUP1 PUSH1 0x1F LT PUSH2 0x3DA JUMPI PUSH2 0x100 DUP1 DUP4 SLOAD DIV MUL DUP4 MSTORE SWAP2 PUSH1 0x20 ADD SWAP2 PUSH2 0x403 JUMP JUMPDEST DUP3 ADD SWAP2 SWAP1 PUSH0 MSTORE PUSH1 0x20 PUSH0 KECCAK256 SWAP1 JUMPDEST DUP2 SLOAD DUP2 MSTORE SWAP1 PUSH1 0x1 ADD SWAP1 PUSH1 0x20 ADD DUP1 DUP4 GT PUSH2 0x3E6 JUMPI DUP3 SWAP1 SUB PUSH1 0x1F AND DUP3 ADD SWAP2 JUMPDEST POP POP POP POP POP DUP2 MSTORE PUSH1 0x20 ADD SWAP1 PUSH1 0x1 ADD SWAP1 PUSH2 0x36F JUMP JUMPDEST POP POP POP POP SWAP1 POP SWAP2 SWAP1 POP JUMP JUMPDEST PUSH0 DUP1 CALLER PUSH20 0xFFFFFFFFFFFFFFFFFFFFFFFFFFFFFFFFFFFFFFFF AND PUSH20 0xFFFFFFFFFFFFFFFFFFFFFFFFFFFFFFFFFFFFFFFF AND DUP2 MSTORE PUSH1 0x20 ADD SWAP1 DUP2 MSTORE PUSH1 0x20 ADD PUSH0 KECCAK256 DUP2 SWAP1 DUP1 PUSH1 0x1 DUP2 SLOAD ADD DUP1 DUP3 SSTORE DUP1 SWAP2 POP POP PUSH1 0x1 SWAP1 SUB SWAP1 PUSH0 MSTORE PUSH1 0x20 PUSH0 KECCAK256 ADD PUSH0 SWAP1 SWAP2 SWAP1 SWAP2 SWAP1 SWAP2 POP SWAP1 DUP2 PUSH2 0x48D SWAP2 SWAP1 PUSH2 0xB67 JUMP JUMPDEST POP POP JUMP JUMPDEST PUSH0 PUSH1 0x40 MLOAD SWAP1 POP SWAP1 JUMP JUMPDEST PUSH0 DUP1 REVERT JUMPDEST PUSH0 DUP1 REVERT JUMPDEST PUSH0 PUSH20 0xFFFFFFFFFFFFFFFFFFFFFFFFFFFFFFFFFFFFFFFF DUP3 AND SWAP1 POP SWAP2 SWAP1 POP JUMP JUMPDEST PUSH0 PUSH2 0x4CB DUP3 PUSH2 0x4A2 JUMP JUMPDEST SWAP1 POP SWAP2 SWAP1 POP JUMP JUMPDEST PUSH2 0x4DB DUP2 PUSH2 0x4C1 JUMP JUMPDEST DUP2 EQ PUSH2 0x4E5 JUMPI PUSH0 DUP1 REVERT JUMPDEST POP JUMP JUMPDEST PUSH0 DUP2 CALLDATALOAD SWAP1 POP PUSH2 0x4F6 DUP2 PUSH2 0x4D2 JUMP JUMPDEST SWAP3 SWAP2 POP POP JUMP JUMPDEST PUSH0 DUP2 SWAP1 POP SWAP2 SWAP1 POP JUMP JUMPDEST PUSH2 0x50E DUP2 PUSH2 0x4FC JUMP JUMPDEST DUP2 EQ PUSH2 0x518 JUMPI PUSH0 DUP1 REVERT JUMPDEST POP JUMP JUMPDEST PUSH0 DUP2 CALLDATALOAD SWAP1 POP PUSH2 0x529 DUP2 PUSH2 0x505 JUMP JUMPDEST SWAP3 SWAP2 POP POP JUMP JUMPDEST PUSH0 DUP1 PUSH1 0x40 DUP4 DUP6 SUB SLT ISZERO PUSH2 0x545 JUMPI PUSH2 0x544 PUSH2 0x49A JUMP JUMPDEST JUMPDEST PUSH0 PUSH2 0x552 DUP6 DUP3 DUP7 ADD PUSH2 0x4E8 JUMP JUMPDEST SWAP3 POP POP PUSH1 0x20 PUSH2 0x563 DUP6 DUP3 DUP7 ADD PUSH2 0x51B JUMP JUMPDEST SWAP2 POP POP SWAP3 POP SWAP3 SWAP1 POP JUMP JUMPDEST PUSH0 DUP2 MLOAD SWAP1 POP SWAP2 SWAP1 POP JUMP JUMPDEST PUSH0 DUP3 DUP3 MSTORE PUSH1 0x20 DUP3 ADD SWAP1 POP SWAP3 SWAP2 POP POP JUMP JUMPDEST PUSH0 JUMPDEST DUP4 DUP2 LT ISZERO PUSH2 0x5A4 JUMPI DUP1 DUP3 ADD MLOAD DUP2 DUP5 ADD MSTORE PUSH1 0x20 DUP2 ADD SWAP1 POP PUSH2 0x589 JUMP JUMPDEST PUSH0 DUP5 DUP5 ADD MSTORE POP POP POP POP JUMP JUMPDEST PUSH0 PUSH1 0x1F NOT PUSH1 0x1F DUP4 ADD AND SWAP1 POP SWAP2 SWAP1 POP JUMP JUMPDEST PUSH0 PUSH2 0x5C9 DUP3 PUSH2 0x56D JUMP JUMPDEST PUSH2 0x5D3 DUP2 DUP6 PUSH2 0x577 JUMP JUMPDEST SWAP4 POP PUSH2 0x5E3 DUP2 DUP6 PUSH1 0x20 DUP7 ADD PUSH2 0x587 JUMP JUMPDEST PUSH2 0x5EC DUP2 PUSH2 0x5AF JUMP JUMPDEST DUP5 ADD SWAP2 POP POP SWAP3 SWAP2 POP POP JUMP JUMPDEST PUSH0 PUSH1 0x20 DUP3 ADD SWAP1 POP DUP2 DUP2 SUB PUSH0 DUP4 ADD MSTORE PUSH2 0x60F DUP2 DUP5 PUSH2 0x5BF JUMP JUMPDEST SWAP1 POP SWAP3 SWAP2 POP POP JUMP JUMPDEST PUSH0 PUSH1 0x20 DUP3 DUP5 SUB SLT ISZERO PUSH2 0x62C JUMPI PUSH2 0x62B PUSH2 0x49A JUMP JUMPDEST JUMPDEST PUSH0 PUSH2 0x639 DUP5 DUP3 DUP6 ADD PUSH2 0x4E8 JUMP JUMPDEST SWAP2 POP POP SWAP3 SWAP2 POP POP JUMP JUMPDEST PUSH0 DUP2 MLOAD SWAP1 POP SWAP2 SWAP1 POP JUMP JUMPDEST PUSH0 DUP3 DUP3 MSTORE PUSH1 0x20 DUP3 ADD SWAP1 POP SWAP3 SWAP2 POP POP JUMP JUMPDEST PUSH0 DUP2 SWAP1 POP PUSH1 0x20 DUP3 ADD SWAP1 POP SWAP2 SWAP1 POP JUMP JUMPDEST PUSH0 DUP3 DUP3 MSTORE PUSH1 0x20 DUP3 ADD SWAP1 POP SWAP3 SWAP2 POP POP JUMP JUMPDEST PUSH0 PUSH2 0x685 DUP3 PUSH2 0x56D JUMP JUMPDEST PUSH2 0x68F DUP2 DUP6 PUSH2 0x66B JUMP JUMPDEST SWAP4 POP PUSH2 0x69F DUP2 DUP6 PUSH1 0x20 DUP7 ADD PUSH2 0x587 JUMP JUMPDEST PUSH2 0x6A8 DUP2 PUSH2 0x5AF JUMP JUMPDEST DUP5 ADD SWAP2 POP POP SWAP3 SWAP2 POP POP JUMP JUMPDEST PUSH0 PUSH2 0x6BE DUP4 DUP4 PUSH2 0x67B JUMP JUMPDEST SWAP1 POP SWAP3 SWAP2 POP POP JUMP JUMPDEST PUSH0 PUSH1 0x20 DUP3 ADD SWAP1 POP SWAP2 SWAP1 POP JUMP JUMPDEST PUSH0 PUSH2 0x6DC DUP3 PUSH2 0x642 JUMP JUMPDEST PUSH2 0x6E6 DUP2 DUP6 PUSH2 0x64C JUMP JUMPDEST SWAP4 POP DUP4 PUSH1 0x20 DUP3 MUL DUP6 ADD PUSH2 0x6F8 DUP6 PUSH2 0x65C JUMP JUMPDEST DUP1 PUSH0 JUMPDEST DUP6 DUP2 LT ISZERO PUSH2 0x733 JUMPI DUP5 DUP5 SUB DUP10 MSTORE DUP2 MLOAD PUSH2 0x714 DUP6 DUP3 PUSH2 0x6B3 JUMP JUMPDEST SWAP5 POP PUSH2 0x71F DUP4 PUSH2 0x6C6 JUMP JUMPDEST SWAP3 POP PUSH1 0x20 DUP11 ADD SWAP10 POP POP PUSH1 0x1 DUP2 ADD SWAP1 POP PUSH2 0x6FB JUMP JUMPDEST POP DUP3 SWAP8 POP DUP8 SWAP6 POP POP POP POP POP POP SWAP3 SWAP2 POP POP JUMP JUMPDEST PUSH0 PUSH1 0x20 DUP3 ADD SWAP1 POP DUP2 DUP2 SUB PUSH0 DUP4 ADD MSTORE PUSH2 0x75D DUP2 DUP5 PUSH2 0x6D2 JUMP JUMPDEST SWAP1 POP SWAP3 SWAP2 POP POP JUMP JUMPDEST PUSH0 DUP1 REVERT JUMPDEST PUSH0 DUP1 REVERT JUMPDEST PUSH32 0x4E487B7100000000000000000000000000000000000000000000000000000000 PUSH0 MSTORE PUSH1 0x41 PUSH1 0x4 MSTORE PUSH1 0x24 PUSH0 REVERT JUMPDEST PUSH2 0x7A3 DUP3 PUSH2 0x5AF JUMP JUMPDEST DUP2 ADD DUP2 DUP2 LT PUSH8 0xFFFFFFFFFFFFFFFF DUP3 GT OR ISZERO PUSH2 0x7C2 JUMPI PUSH2 0x7C1 PUSH2 0x76D JUMP JUMPDEST JUMPDEST DUP1 PUSH1 0x40 MSTORE POP POP POP JUMP JUMPDEST PUSH0 PUSH2 0x7D4 PUSH2 0x491 JUMP JUMPDEST SWAP1 POP PUSH2 0x7E0 DUP3 DUP3 PUSH2 0x79A JUMP JUMPDEST SWAP2 SWAP1 POP JUMP JUMPDEST PUSH0 PUSH8 0xFFFFFFFFFFFFFFFF DUP3 GT ISZERO PUSH2 0x7FF JUMPI PUSH2 0x7FE PUSH2 0x76D JUMP JUMPDEST JUMPDEST PUSH2 0x808 DUP3 PUSH2 0x5AF JUMP JUMPDEST SWAP1 POP PUSH1 0x20 DUP2 ADD SWAP1 POP SWAP2 SWAP1 POP JUMP JUMPDEST DUP3 DUP2 DUP4 CALLDATACOPY PUSH0 DUP4 DUP4 ADD MSTORE POP POP POP JUMP JUMPDEST PUSH0 PUSH2 0x835 PUSH2 0x830 DUP5 PUSH2 0x7E5 JUMP JUMPDEST PUSH2 0x7CB JUMP JUMPDEST SWAP1 POP DUP3 DUP2 MSTORE PUSH1 0x20 DUP2 ADD DUP5 DUP5 DUP5 ADD GT ISZERO PUSH2 0x851 JUMPI PUSH2 0x850 PUSH2 0x769 JUMP JUMPDEST JUMPDEST PUSH2 0x85C DUP5 DUP3 DUP6 PUSH2 0x815 JUMP JUMPDEST POP SWAP4 SWAP3 POP POP POP JUMP JUMPDEST PUSH0 DUP3 PUSH1 0x1F DUP4 ADD SLT PUSH2 0x878 JUMPI PUSH2 0x877 PUSH2 0x765 JUMP JUMPDEST JUMPDEST DUP2 CALLDATALOAD PUSH2 0x888 DUP5 DUP3 PUSH1 0x20 DUP7 ADD PUSH2 0x823 JUMP JUMPDEST SWAP2 POP POP SWAP3 SWAP2 POP POP JUMP JUMPDEST PUSH0 PUSH1 0x20 DUP3 DUP5 SUB SLT ISZERO PUSH2 0x8A6 JUMPI PUSH2 0x8A5 PUSH2 0x49A JUMP JUMPDEST JUMPDEST PUSH0 DUP3 ADD CALLDATALOAD PUSH8 0xFFFFFFFFFFFFFFFF DUP2 GT ISZERO PUSH2 0x8C3 JUMPI PUSH2 0x8C2 PUSH2 0x49E JUMP JUMPDEST JUMPDEST PUSH2 0x8CF DUP5 DUP3 DUP6 ADD PUSH2 0x864 JUMP JUMPDEST SWAP2 POP POP SWAP3 SWAP2 POP POP JUMP JUMPDEST PUSH32 0x4E487B7100000000000000000000000000000000000000000000000000000000 PUSH0 MSTORE PUSH1 0x22 PUSH1 0x4 MSTORE PUSH1 0x24 PUSH0 REVERT JUMPDEST PUSH0 PUSH1 0x2 DUP3 DIV SWAP1 POP PUSH1 0x1 DUP3 AND DUP1 PUSH2 0x91C JUMPI PUSH1 0x7F DUP3 AND SWAP2 POP JUMPDEST PUSH1 0x20 DUP3 LT DUP2 SUB PUSH2 0x92F JUMPI PUSH2 0x92E PUSH2 0x8D8 JUMP JUMPDEST JUMPDEST POP SWAP2 SWAP1 POP JUMP JUMPDEST PUSH32 0x547765657420696E646578206F7574206F6620626F756E647300000000000000 PUSH0 DUP3 ADD MSTORE POP JUMP JUMPDEST PUSH0 PUSH2 0x969 PUSH1 0x19 DUP4 PUSH2 0x577 JUMP JUMPDEST SWAP2 POP PUSH2 0x974 DUP3 PUSH2 0x935 JUMP JUMPDEST PUSH1 0x20 DUP3 ADD SWAP1 POP SWAP2 SWAP1 POP JUMP JUMPDEST PUSH0 PUSH1 0x20 DUP3 ADD SWAP1 POP DUP2 DUP2 SUB PUSH0 DUP4 ADD MSTORE PUSH2 0x996 DUP2 PUSH2 0x95D JUMP JUMPDEST SWAP1 POP SWAP2 SWAP1 POP JUMP JUMPDEST PUSH32 0x4E487B7100000000000000000000000000000000000000000000000000000000 PUSH0 MSTORE PUSH1 0x32 PUSH1 0x4 MSTORE PUSH1 0x24 PUSH0 REVERT JUMPDEST PUSH0 DUP2 SWAP1 POP DUP2 PUSH0 MSTORE PUSH1 0x20 PUSH0 KECCAK256 SWAP1 POP SWAP2 SWAP1 POP JUMP JUMPDEST PUSH0 PUSH1 0x20 PUSH1 0x1F DUP4 ADD DIV SWAP1 POP SWAP2 SWAP1 POP JUMP JUMPDEST PUSH0 DUP3 DUP3 SHL SWAP1 POP SWAP3 SWAP2 POP POP JUMP JUMPDEST PUSH0 PUSH1 0x8 DUP4 MUL PUSH2 0xA26 PUSH32 0xFFFFFFFFFFFFFFFFFFFFFFFFFFFFFFFFFFFFFFFFFFFFFFFFFFFFFFFFFFFFFFFF DUP3 PUSH2 0x9EB JUMP JUMPDEST PUSH2 0xA30 DUP7 DUP4 PUSH2 0x9EB JUMP JUMPDEST SWAP6 POP DUP1 NOT DUP5 AND SWAP4 POP DUP1 DUP7 AND DUP5 OR SWAP3 POP POP POP SWAP4 SWAP3 POP POP POP JUMP JUMPDEST PUSH0 DUP2 SWAP1 POP SWAP2 SWAP1 POP JUMP JUMPDEST PUSH0 PUSH2 0xA6B PUSH2 0xA66 PUSH2 0xA61 DUP5 PUSH2 0x4FC JUMP JUMPDEST PUSH2 0xA48 JUMP JUMPDEST PUSH2 0x4FC JUMP JUMPDEST SWAP1 POP SWAP2 SWAP1 POP JUMP JUMPDEST PUSH0 DUP2 SWAP1 POP SWAP2 SWAP1 POP JUMP JUMPDEST PUSH2 0xA84 DUP4 PUSH2 0xA51 JUMP JUMPDEST PUSH2 0xA98 PUSH2 0xA90 DUP3 PUSH2 0xA72 JUMP JUMPDEST DUP5 DUP5 SLOAD PUSH2 0x9F7 JUMP JUMPDEST DUP3 SSTORE POP POP POP POP JUMP JUMPDEST PUSH0 SWAP1 JUMP JUMPDEST PUSH2 0xAAC PUSH2 0xAA0 JUMP JUMPDEST PUSH2 0xAB7 DUP2 DUP5 DUP5 PUSH2 0xA7B JUMP JUMPDEST POP POP POP JUMP JUMPDEST JUMPDEST DUP2 DUP2 LT ISZERO PUSH2 0xADA JUMPI PUSH2 0xACF PUSH0 DUP3 PUSH2 0xAA4 JUMP JUMPDEST PUSH1 0x1 DUP2 ADD SWAP1 POP PUSH2 0xABD JUMP JUMPDEST POP POP JUMP JUMPDEST PUSH1 0x1F DUP3 GT ISZERO PUSH2 0xB1F JUMPI PUSH2 0xAF0 DUP2 PUSH2 0x9CA JUMP JUMPDEST PUSH2 0xAF9 DUP5 PUSH2 0x9DC JUMP JUMPDEST DUP2 ADD PUSH1 0x20 DUP6 LT ISZERO PUSH2 0xB08 JUMPI DUP2 SWAP1 POP JUMPDEST PUSH2 0xB1C PUSH2 0xB14 DUP6 PUSH2 0x9DC JUMP JUMPDEST DUP4 ADD DUP3 PUSH2 0xABC JUMP JUMPDEST POP POP JUMPDEST POP POP POP JUMP JUMPDEST PUSH0 DUP3 DUP3 SHR SWAP1 POP SWAP3 SWAP2 POP POP JUMP JUMPDEST PUSH0 PUSH2 0xB3F PUSH0 NOT DUP5 PUSH1 0x8 MUL PUSH2 0xB24 JUMP JUMPDEST NOT DUP1 DUP4 AND SWAP2 POP POP SWAP3 SWAP2 POP POP JUMP JUMPDEST PUSH0 PUSH2 0xB57 DUP4 DUP4 PUSH2 0xB30 JUMP JUMPDEST SWAP2 POP DUP3 PUSH1 0x2 MUL DUP3 OR SWAP1 POP SWAP3 SWAP2 POP POP JUMP JUMPDEST PUSH2 0xB70 DUP3 PUSH2 0x56D JUMP JUMPDEST PUSH8 0xFFFFFFFFFFFFFFFF DUP2 GT ISZERO PUSH2 0xB89 JUMPI PUSH2 0xB88 PUSH2 0x76D JUMP JUMPDEST JUMPDEST PUSH2 0xB93 DUP3 SLOAD PUSH2 0x905 JUMP JUMPDEST PUSH2 0xB9E DUP3 DUP3 DUP6 PUSH2 0xADE JUMP JUMPDEST PUSH0 PUSH1 0x20 SWAP1 POP PUSH1 0x1F DUP4 GT PUSH1 0x1 DUP2 EQ PUSH2 0xBCF JUMPI PUSH0 DUP5 ISZERO PUSH2 0xBBD JUMPI DUP3 DUP8 ADD MLOAD SWAP1 POP JUMPDEST PUSH2 0xBC7 DUP6 DUP3 PUSH2 0xB4C JUMP JUMPDEST DUP7 SSTORE POP PUSH2 0xC2E JUMP JUMPDEST PUSH1 0x1F NOT DUP5 AND PUSH2 0xBDD DUP7 PUSH2 0x9CA JUMP JUMPDEST PUSH0 JUMPDEST DUP3 DUP2 LT ISZERO PUSH2 0xC04 JUMPI DUP5 DUP10 ADD MLOAD DUP3 SSTORE PUSH1 0x1 DUP3 ADD SWAP2 POP PUSH1 0x20 DUP6 ADD SWAP5 POP PUSH1 0x20 DUP2 ADD SWAP1 POP PUSH2 0xBDF JUMP JUMPDEST DUP7 DUP4 LT ISZERO PUSH2 0xC21 JUMPI DUP5 DUP10 ADD MLOAD PUSH2 0xC1D PUSH1 0x1F DUP10 AND DUP3 PUSH2 0xB30 JUMP JUMPDEST DUP4 SSTORE POP JUMPDEST PUSH1 0x1 PUSH1 0x2 DUP9 MUL ADD DUP9 SSTORE POP POP POP JUMPDEST POP POP POP POP POP POP JUMP INVALID LOG2 PUSH5 0x6970667358 0x22 SLT KECCAK256 0xE1 SWAP9 DUP8 SWAP9 0xEC SWAP11 0xD9 0xA8 EXTCODEHASH 0x4E 0x1F CODECOPY 0xB2 PUSH28 0x6D621393DBB10C10D10ED223511E3184CF8E64736F6C634300081600 CALLER "
				},
				"gasEstimates": {
					"creation": {
						"codeDepositCost": "636000",
						"executionCost": "668",
						"totalCost": "636668"
					},
					"external": {
						"createTweet(string)": "infinite",
						"getAllTweets(address)": "infinite",
						"getTweet(address,uint256)": "infinite",
						"tweets(address,uint256)": "infinite"
					}
				},
				"methodIdentifiers": {
					"createTweet(string)": "7c9cd2bc",
					"getAllTweets(address)": "12e7ee1c",
					"getTweet(address,uint256)": "112f54e3",
					"tweets(address,uint256)": "05a1b4a9"
				}
			},
			"storageLayout": {
				"storage": [
					{
						"astId": 6,
						"contract": "contracts/Tweeter.sol:Twitter",
						"label": "tweets",
						"offset": 0,
						"slot": "0",
						"type": "t_mapping(t_address,t_array(t_string_storage)dyn_storage)"
					}
				],
				"types": {
					"t_address": {
						"encoding": "inplace",
						"label": "address",
						"numberOfBytes": "20"
					},
					"t_array(t_string_storage)dyn_storage": {
						"base": "t_string_storage",
						"encoding": "dynamic_array",
						"label": "string[]",
						"numberOfBytes": "32"
					},
					"t_mapping(t_address,t_array(t_string_storage)dyn_storage)": {
						"encoding": "mapping",
						"key": "t_address",
						"label": "mapping(address => string[])",
						"numberOfBytes": "32",
						"value": "t_array(t_string_storage)dyn_storage"
					},
					"t_string_storage": {
						"encoding": "bytes",
						"label": "string",
						"numberOfBytes": "32"
					}
				}
			},
			"userdoc": {
				"kind": "user",
				"methods": {},
				"version": 1
			}
		}
	}
}